:100000000C9462000C948A000C948A000C948A0070
:100010000C948A000C948A000C948A000C948A0038
:100020000C948A000C948A000C948A000C948A0028
:100030000C948A000C948A000C948A000C948A0018
:100040000C9487030C948A000C9455030C942F0392
:100050000C948A000C948A000C948A000C948A00F8
:100060000C948A000C948A000000000024002700F1
:100070002A0000000000250028002B0000000000DE
:1000800023002600290004040404040404040202DA
:100090000202020203030303030301020408102007
:1000A0004080010204081020010204081020000012
:1000B0000008000201000003040700000000000027
:1000C0000000220511241FBECFEFD8E0DEBFCDBF58
:1000D00011E0A0E0B1E0E4EFFDE002C005900D9278
:1000E000AE31B107D9F721E0AEE1B1E001C01D9218
:1000F000A63CB207E1F710E0C2E6D0E004C02197C9
:10010000FE010E94F206C136D107C9F70E94D10351
:100110000C94F8060C940000AF92BF92CF92DF923D
:10012000EF92FF920F931F93CF93DF936C017B01AC
:100130008B01040F151FEB015E01AE18BF08C0173D
:10014000D10759F06991D601ED91FC910190F081B0
:10015000E02DC6010995892B79F7C501DF91CF9173
:100160001F910F91FF90EF90DF90CF90BF90AF90D5
:100170000895FC01538D448D252F30E0842F90E0AD
:10018000821B930B541710F0CF9608950197089592
:10019000FC01918D828D981761F0A28DAE0FBF2F5B
:1001A000B11D5D968C91928D9F5F9F73928F90E0B1
:1001B00008958FEF9FEF0895FC01918D828D981720
:1001C00031F0828DE80FF11D858D90E008958FEF5D
:1001D0009FEF0895FC01918D228D892F90E0805C26
:1001E0009F4F821B91098F739927089589E291E0AF
:1001F0000E94EA0021E0892B09F420E0822F089573
:1002000080E090E0892B29F00E94F60081110C9487
:1002100000000895FC01A48DA80FB92FB11DA35AA9
:10022000BF4F2C91848D90E001968F739927848F16
:10023000A689B7892C93A089B1898C918370806439
:100240008C93938D848D981306C00288F389E02DDA
:1002500080818F7D80830895EF92FF920F931F938B
:10026000CF93DF93EC0181E0888F9B8D8C8D981369
:100270001AC0E889F989808185FF15C09FB7F89475
:10028000EE89FF896083E889F989808183708064C1
:1002900080839FBF81E090E0DF91CF911F910F910C
:1002A000FF90EF900895F62E0B8D10E00F5F1F4F1B
:1002B0000F731127E02E8C8D8E110CC00FB607FC2A
:1002C000FACFE889F989808185FFF5CFCE010E94B8
:1002D0000A01F1CFEB8DEC0FFD2FF11DE35AFF4F1B
:1002E000F0829FB7F8940B8FEA89FB898081806246
:1002F000CFCFCF93DF93EC01888D8823B9F0AA8903
:10030000BB89E889F9898C9185FD03C0808186FDD0
:100310000DC00FB607FCF7CF8C9185FFF2CF80811F
:1003200085FFEDCFCE010E940A01E9CFDF91CF9189
:100330000895833081F028F4813099F08230A9F05B
:1003400008958730A9F08830C9F08430B1F48091E5
:1003500080008F7D03C0809180008F778093800024
:10036000089584B58F7784BD089584B58F7DFBCFC4
:100370008091B0008F778093B00008958091B00095
:100380008F7DF9CFCF93DF93282F30E0F901E2552D
:10039000FF4F8491F901E656FF4FD491F901EA57D6
:1003A000FF4FC491CC23A1F081110E949901EC2F41
:1003B000F0E0EE0FFF1FE458FF4FA591B491EC91D0
:1003C000ED2381E090E009F480E0DF91CF91089582
:1003D00080E090E0FACF1F93CF93DF93282F30E097
:1003E000F901E255FF4F8491F901E656FF4FD49190
:1003F000F901EA57FF4FC491CC23A9F0162F8111C0
:100400000E949901EC2FF0E0EE0FFF1FEE58FF4F16
:10041000A591B4918FB7F894EC91111108C0D095C3
:10042000DE23DC938FBFDF91CF911F910895DE2BE8
:10043000F8CFCF93DF9390E0FC01E656FF4F249175
:100440008A579F4FFC0184918823D1F090E0880F58
:10045000991FFC01E859FF4FA591B491FC01EE589A
:10046000FF4FC591D49161110EC09FB7F8948C9144
:10047000E22FE0958E238C932881E223E8839FBFAF
:10048000DF91CF9108958FB7F894EC91E22BEC9324
:100490008FBFF6CF1F93CF93DF93182FEB0161E04F
:1004A0000E941902209739F460E0812FDF91CF91EB
:1004B0001F910C94EB01CF3FD10511F461E0F5CF12
:1004C000E12FF0E0E255FF4FE491E33031F140F4E9
:1004D000E130B1F0E230E1F0C038D1057CF7E4CF93
:1004E000E73029F1E83059F1E430B1F7809180002C
:1004F000806280938000D0938B00C0938A0004C0F8
:1005000084B5806884BDC7BDDF91CF911F910895E8
:1005100084B5806284BDC8BDF7CF809180008068BB
:1005200080938000D0938900C0938800EDCF8091A4
:10053000B00080688093B000C093B300E5CF809195
:10054000B00080628093B000C093B400DDCF3FB7AD
:10055000F8948091230190912401A0912501B091FC
:10056000260126B5A89B05C02F3F19F00196A11DB5
:10057000B11D3FBFBA2FA92F982F8827BC01CD01ED
:10058000620F711D811D911D42E0660F771F881F4C
:10059000991F4A95D1F708958F929F92AF92BF927B
:1005A000CF92DF92EF92FF924B015C010E94A70273
:1005B0006B017C010E94A7026C197D098E099F09BD
:1005C000683E734081059105A8F321E0821A9108E5
:1005D000A108B10888EEC80E83E0D81EE11CF11C0A
:1005E00081149104A104B10429F7FF90EF90DF90EA
:1005F000CF90BF90AF909F908F900895BC018BE0FB
:100600000E944A0260E088E00E94EB0161E087E01E
:100610000E94EB0161E08AE00E94EB0160E089E06A
:100620000C94EB01CF93DF93FC0101900020E9F7DC
:100630003197AF01481B590BBC0189E291E00E9440
:100640008C00EC0142E050E062E171E089E291E06F
:100650000E948C008C0F9D1FDF91CF9108951F92F7
:100660000F920FB60F9211242F933F934F935F93E6
:100670006F937F938F939F93AF93BF93EF93FF936A
:1006800089E291E00E940A01FF91EF91BF91AF9141
:100690009F918F917F916F915F914F913F912F919A
:1006A0000F900FBE0F901F9018951F920F920FB6CC
:1006B0000F9211242F938F939F93EF93FF93E091C9
:1006C0003901F0913A018081E0913F01F0914001C0
:1006D00082FD1BC09081809142018F5F8F732091BA
:1006E0004301821741F0E0914201F0E0E75DFE4FE7
:1006F000958F80934201FF91EF919F918F912F9160
:100700000F900FBE0F901F9018958081F4CF1F920D
:100710000F920FB60F9211242F933F938F939F93B5
:10072000AF93BF9380911F0190912001A09121016F
:10073000B091220130911E0123E0230F2D3758F58F
:100740000196A11DB11D20931E0180931F0190935E
:100750002001A0932101B093220180912301909167
:100760002401A0912501B09126010196A11DB11D82
:100770008093230190932401A0932501B093260137
:10078000BF91AF919F918F913F912F910F900FBE8D
:100790000F901F90189526E8230F0296A11DB11DFA
:1007A000D2CF789484B5826084BD84B5816084BDE5
:1007B00085B5826085BD85B5816085BD80916E00FF
:1007C000816080936E001092810080918100826030
:1007D000809381008091810081608093810080916D
:1007E00080008160809380008091B100846080935C
:1007F000B1008091B00081608093B00080917A0058
:10080000846080937A0080917A00826080937A007D
:1008100080917A00816080937A0080917A0080686C
:1008200080937A001092C10061E085E00E94190275
:1008300061E08BE00E94190261E088E00E941902E9
:1008400061E087E00E94190261E08AE00E941902DB
:1008500061E089E00E94190260E082E10E941902D1
:1008600060E08EE00E94190260E080E10E941902BF
:10087000E0913901F0913A0182E08083E091350105
:10088000F09136011082E0913701F09138018FEC40
:10089000808310924101E0913D01F0913E0186E09C
:1008A0008083E0913B01F0913C01808180618083F5
:1008B000E0913B01F0913C01808188608083E09170
:1008C0003B01F0913C01808180688083E0913B0195
:1008D000F0913C0180818F7D808314E4C0E0D0E002
:1008E00010937C0080917A00806480937A008091DC
:1008F0007A0086FDFCCF8091780060917900762F98
:10090000682F072E000C880B990B0E94F90520E038
:1009100030E04FE753E40E94850620E030EC4FE7DB
:1009200054E40E944F050E94C1056B017093280199
:10093000609327018EE00E94C2015C0180E10E9469
:10094000C201A114B104A9F5009709F043C0B60192
:100950008BE00E944A0260E088E00E94EB0161E0C7
:1009600087E00E94EB0160E08AE00E94EB0161E019
:1009700089E00E94EB0168E572E080E090E00E946F
:10098000CC02C6010E94FE0260E971E080E090E0C6
:100990000E94CC0285E191E00E941203209709F4A5
:1009A0009FCF0E94F600882309F49ACF0E9400008E
:1009B00097CFAA94AB2891F7009759F5C6010E94EA
:1009C000FE026CE271E080E090E00E94CC0287E1E0
:1009D00091E0E2CF019711F7B6018BE00E944A0245
:1009E00061E088E00E94EB0160E087E00E94EB019B
:1009F00060E08AE00E94EB0161E089E00E94EB0187
:100A00006CE271E080E090E00E94CC0289E191E02C
:100A1000C3CF019719F6B6018BE00E944A0261E04C
:100A200088E00E94EB0160E087E00E94EB0161E05A
:100A30008AE00E94EB0160E089E00E94EB018BE11B
:100A400091E0AACFE9E2F1E01382128288EE93E00E
:100A5000A0E0B0E084839583A683B78384E091E02F
:100A60009183808385EC90E09587848784EC90E087
:100A70009787868780EC90E0918B808B81EC90E06B
:100A8000938B828B82EC90E0958B848B86EC90E04C
:100A9000978B868B118E128E138E148E08950E9462
:100AA00063050C944B060E94440658F00E943D06D4
:100AB00040F029F45F3F29F00C94340651110C9456
:100AC0007F060C943A060E945C0668F39923B1F302
:100AD000552391F3951B550BBB27AA276217730764
:100AE000840738F09F5F5F4F220F331F441FAA1FF8
:100AF000A9F335D00E2E3AF0E0E832D091505040B4
:100B0000E695001CCAF72BD0FE2F29D0660F771F61
:100B1000881FBB1F261737074807AB07B0E809F047
:100B2000BB0B802DBF01FF2793585F4F3AF09E3FCC
:100B3000510578F00C9434060C947F065F3FE4F383
:100B4000983ED4F3869577956795B795F7959F5F0F
:100B5000C9F7880F911D9695879597F90895E1E05B
:100B6000660F771F881FBB1F621773078407BA07BA
:100B700020F0621B730B840BBA0BEE1F88F7E09515
:100B800008950E94C8056894B1110C947F060895D9
:100B90000E94640688F09F5798F0B92F9927B751A3
:100BA000B0F0E1F0660F771F881F991F1AF0BA9511
:100BB000C9F714C0B13091F00E947E06B1E00895EB
:100BC0000C947E06672F782F8827B85F39F0B93FDD
:100BD000CCF3869577956795B395D9F73EF49095C4
:100BE0008095709561957F4F8F4F9F4F0895E89442
:100BF00009C097FB3EF490958095709561957F4F65
:100C00008F4F9F4F9923A9F0F92F96E9BB27939512
:100C1000F695879577956795B795F111F8CFFAF422
:100C2000BB0F11F460FF1BC06F5F7F4F8F4F9F4F53
:100C300016C0882311F096E911C0772321F09EE8B1
:100C4000872F762F05C0662371F096E8862F70E017
:100C500060E02AF09A95660F771F881FDAF7880FF1
:100C60009695879597F9089597F99F6780E870E0C2
:100C700060E008959FEF80EC089500240A94161612
:100C8000170618060906089500240A94121613067A
:100C9000140605060895092E0394000C11F4882308
:100CA00052F0BB0F40F4BF2B11F460FF04C06F5F24
:100CB0007F4F8F4F9F4F089557FD9058440F551FFA
:100CC00059F05F3F71F04795880F97FB991F61F0CE
:100CD0009F3F79F087950895121613061406551F45
:100CE000F2CF4695F1DF08C0161617061806991FB1
:100CF000F1CF86957105610508940895E894BB27A6
:100D000066277727CB0197F908950E9498060C94DF
:100D10004B060E943D0638F00E94440620F09523C1
:100D200011F00C9434060C943A0611240C947F06AE
:100D30000E945C0670F3959FC1F3950F50E0551F1C
:100D4000629FF001729FBB27F00DB11D639FAA2720
:100D5000F00DB11DAA1F649F6627B00DA11D661F6F
:100D6000829F2227B00DA11D621F739FB00DA11D90
:100D7000621F839FA00D611D221F749F3327A00D4A
:100D8000611D231F849F600D211D822F762F6A2FE6
:100D900011249F5750409AF0F1F088234AF0EE0F4B
:100DA000FF1FBB1F661F771F881F91505040A9F778
:100DB0009E3F510580F00C9434060C947F065F3FF3
:100DC000E4F3983ED4F3869577956795B795F795B4
:100DD000E7959F5FC1F7FE2B880F911D969587952C
:100DE00097F90895EE0FFF1F0590F491E02D0994F7
:040DF000F894FFCFA5
:100DF400000000002C018C00B9007901EA00C80051
:0E0E0400DC000D0A00422D52004C004600009A
:00000001FF
