:020000040000FA
:100000000C945E000C9486000C9486000C94860080
:100010000C9486000C9486000C9486000C94860048
:100020000C9486000C9486000C9486000C94860038
:100030000C9486000C9486000C9486000C94860028
:100040000C9440020C9486000C94B0020C948A022A
:100050000C9486000C9486000C9486000C94860008
:100060000C9486000C948600000000080002010039
:100070000003040700000000000000000000000072
:10008000250028002B0000000000240027002A0083
:10009000040404040404040402020202020203032E
:1000A0000303030301020408102040800102040836
:1000B0001020010204081020E202F90411241FBEDE
:1000C000CFEFD8E0DEBFCDBF21E0ACE1B1E001C0B1
:1000D0001D92AE3CB207E1F711E0A0E0B1E0EAE327
:1000E000F2E102C005900D92AC31B107D9F710E0F2
:1000F000CDE5D0E004C02197FE010E941807CC3561
:10010000D107C9F70E9469030C9410090C940000F0
:1001100090E0FC01EC55FF4F249180579F4FFC016C
:100120008491882399F090E0880F991FFC01EA5789
:10013000FF4FA591B491FC01E458FF4F8591949134
:100140008FB7F894EC91E22BEC938FBF0895FC01EC
:10015000538D448D252F30E0842F90E0821B930B2C
:10016000541710F0CF96089501970895FC01918DD2
:10017000828D981761F0A28DAE0FBF2FB11D5D96D5
:100180008C91928D9F5F9F73928F90E008958FEF77
:100190009FEF0895FC01918D828D981731F0828D2B
:1001A000E80FF11D858D90E008958FEF9FEF089582
:1001B0002FB7F8948091230190912401A0912501FB
:1001C000B09126012FBF80932F0190933001A0930F
:1001D0003101B093320187E291E00E94CA0097FF9B
:1001E00026C02FB7F8948091230190912401A0910B
:1001F0002501B09126012FBF40912F015091300170
:100200006091310170913201841B950BA60BB70BE5
:1002100040912B0150912C0160912D0170912E0184
:1002200084179507A607B707B0F28FEF9FEF0895E1
:10023000FC01918D228D892F90E0805C9F4F821B65
:1002400091098F7399270895FC01A48DA80FB92FE8
:10025000B11DA35ABF4F2C91848D90E001968F73EE
:100260009927848FA689B7892C93A089B1898C910D
:10027000837080648C93938D848D981306C002885C
:10028000F389E02D80818F7D80830895EF92FF9226
:100290000F931F93CF93DF93EC0181E0888F9B8DA9
:1002A0008C8D98131AC0E889F989808185FF15C063
:1002B0009FB7F894EE89FF896083E889F989808186
:1002C0008370806480839FBF81E090E0DF91CF9155
:1002D0001F910F91FF90EF900895F62E0B8D10E077
:1002E0000F5F1F4F0F731127E02E8C8D8E110CC0E6
:1002F0000FB607FCFACFE889F989808185FFF5CF31
:10030000CE010E942401F1CFEB8DEC0FFD2FF11DEA
:10031000E35AFF4FF0829FB7F8940B8FEA89FB896D
:1003200080818062CFCFCF93DF93EC01888D8823CB
:10033000B9F0AA89BB89E889F9898C9185FD03C048
:10034000808186FD0DC00FB607FCF7CF8C9185FF2D
:10035000F2CF808185FFEDCFCE010E942401E9CF4D
:10036000DF91CF91089587E291E00E94180121E08A
:10037000892B09F420E0822F089580E090E0892BFA
:1003800029F00E94B30181110C9400000895AF92EE
:10039000BF92CF92DF92EF92FF920F931F93CF9372
:1003A000DF936C017B018B01040F151FEB015E01D4
:1003B000AE18BF08C017D10759F06991D601ED9169
:1003C000FC910190F081E02DC6010995892B79F708
:1003D000C501DF91CF911F910F91FF90EF90DF90BA
:1003E000CF90BF90AF90089590E0FC01E859FF4F87
:1003F0002491FC01EC55FF4F3491FC01E057FF4F75
:10040000E491EE23C9F0222339F0233001F1A8F45E
:10041000213019F1223029F1F0E0EE0FFF1FE458EE
:10042000FF4FA591B4918FB7F894EC91611126C05C
:1004300030953E233C938FBF08952730A9F0283094
:10044000C9F0243049F7809180008F7D03C08091EE
:1004500080008F7780938000DFCF84B58F7784BD55
:10046000DBCF84B58F7DFBCF8091B0008F778093F9
:10047000B000D2CF8091B0008F7DF9CF3E2BDACF84
:100480001F920F920FB60F9211242F933F938F93C9
:100490009F93AF93BF938091230190912401A091EA
:1004A0002501B09126013091220123E0230F2D3741
:1004B00058F50196A11DB11D2093220180932301BF
:1004C00090932401A0932501B093260180911E01F1
:1004D00090911F01A0912001B09121010196A11DD1
:1004E000B11D80931E0190931F01A0932001B09332
:1004F0002101BF91AF919F918F913F912F910F90CB
:100500000FBE0F901F90189526E8230F0296A11D8D
:10051000B11DD2CF1F920F920FB60F9211242F93BD
:100520003F934F935F936F937F938F939F93AF937B
:10053000BF93EF93FF9387E291E00E942401FF9124
:10054000EF91BF91AF919F918F917F916F915F914B
:100550004F913F912F910F900FBE0F901F901895C4
:100560001F920F920FB60F9211242F938F939F9388
:10057000EF93FF93E0913701F09138018081E09192
:100580003D01F0913E0182FD1BC0908180914001B0
:100590008F5F8F7320914101821741F0E0914001FC
:1005A000F0E0E95DFE4F958F80934001FF91EF9160
:1005B0009F918F912F910F900FBE0F901F901895C4
:1005C0008081F4CF10922A011092290188EE93E0E5
:1005D000A0E0B0E080932B0190932C01A0932D011B
:1005E000B0932E018AE091E0909328018093270137
:1005F00085EC90E0909334018093330184EC90E09B
:10060000909336018093350180EC90E0909338010F
:100610008093370181EC90E090933A018093390107
:1006200082EC90E090933C0180933B0186EC90E05B
:1006300090933E0180933D01109240011092410140
:1006400010924201109243011092C5011092C40110
:100650001092C7011092C6011092C9011092C801F0
:1006600061E070E090E080E00E9443080097E1F0D4
:100670009093C5018093C4011092C7011092C601E6
:100680002091C8013091C901232B11F4FC01108283
:100690001092C9011092C8016AE171E08091C40111
:1006A0009091C5010C9409098091C4019091C501F4
:1006B000009711F00E94BA071092C5011092C40170
:1006C0001092C9011092C8011092C7011092C60180
:1006D0000895CF93DF93CDB7DEB7A1970FB6F89407
:1006E000DEBF0FBECDBF789484B5826084BD84B573
:1006F000816084BD85B5826085BD85B5816085BD1D
:1007000080916E00816080936E00109281008091D4
:10071000810082608093810080918100816080935C
:100720008100809180008160809380008091B10081
:1007300084608093B1008091B00081608093B000AC
:1007400080917A00846080937A0080917A00826040
:1007500080937A0080917A00816080937A00809102
:100760007A00806880937A001092C10085E00E9430
:1007700088008AE0882E912CA12CB12C9DE6C92EF0
:1007800090E0D92E20E0E22E20E0F22E84E4809347
:100790007C0080917A00806480937A0080917A0056
:1007A00086FDFCCF8091780060917900762F682FCC
:1007B000072E000C880B990B0E94040520E030E006
:1007C0004FE753E40E943F0520E030EC4FE754E44C
:1007D0000E944E060E94C00670931D0160931C018A
:1007E0000E94D8001C0197FDA4C08D32910521F014
:1007F000C0970A9708F096C0412C512C320110E0A6
:10080000F1E02F163104E1F08DE22816310409F4ED
:100810008EC0C101C0970A9798F4AAE0B0E0A30186
:1008200092010E94FD052101330C66087708460EEF
:10083000571E681E791EE0E34E1A510861087108C0
:1008400087E291E00E94B6000E94D8001C01C09788
:100850000A97B0F2F1E02F16310491F2112341F022
:100860007094609450944094411C511C611C711C04
:1008700050921D0140921C011201550C440855086C
:1008800057FE5BC06DE287E291E00E94460122279D
:100890003327A901221933094409550919A28E01E8
:1008A0000F5D1F4FCA01B901A50194010E94F60610
:1008B000605DF80162938F012115310541055105F5
:1008C00089F70115110561F001900020E9F73197D2
:1008D000AF01401B510BB80187E291E00E94C701B4
:1008E00042E050E068E171E087E291E00E94C701D8
:1008F00000911C0110911D0185E00E9488000115E6
:10090000110589F560E085E00E94F401E114F1042D
:1009100009F43CCF0E94B301882309F437CF0E9429
:10092000000034CF87E291E00E94B60059CF11E079
:1009300087CF412C512C32019BCFA201910119A2EA
:100940008E010F5D1F4FCA01B901A50194010E94DC
:10095000F606605DF80162938F01211531054105AE
:10096000510589F7AECF0F3F110511F461E0CBCFF0
:10097000F6018491833019F140F48130B1F0823076
:10098000C9F00038110594F7BDCF873011F18830D8
:1009900041F18430B1F780918000806280938000C3
:1009A00010938B0000938A00B1CF84B5806884BD1A
:1009B00007BDACCF84B5806284BD08BDA7CF809150
:1009C00080008068809380001093890000938800E5
:1009D0009DCF8091B00080688093B0000093B300F9
:1009E00095CF8091B00080628093B0000093B400F6
:1009F0008DCF8091C4019091C501009711F00C94A6
:100A0000BA070895E89409C097FB3EF49095809545
:100A1000709561957F4F8F4F9F4F9923A9F0F92FC4
:100A200096E9BB279395F695879577956795B79542
:100A3000F111F8CFFAF4BB0F11F460FF1BC06F5F28
:100A40007F4F8F4F9F4F16C0882311F096E911C03A
:100A5000772321F09EE8872F762F05C0662371F05B
:100A600096E8862F70E060E02AF09A95660F771F6F
:100A7000881FDAF7880F9695879597F908950E9451
:100A800052050C94C3050E94B50538F00E94BC05C0
:100A900020F0952311F00C94AC050C94B2051124B0
:100AA0000C94F7050E94D40570F3959FC1F3950F40
:100AB00050E0551F629FF001729FBB27F00DB11DE2
:100AC000639FAA27F00DB11DAA1F649F6627B00D72
:100AD000A11D661F829F2227B00DA11D621F739F5B
:100AE000B00DA11D621F839FA00D611D221F749F69
:100AF0003327A00D611D231F849F600D211D822FB0
:100B0000762F6A2F11249F5750409AF0F1F08823D6
:100B10004AF0EE0FFF1FBB1F661F771F881F915003
:100B20005040A9F79E3F510580F00C94AC050C9401
:100B3000F7055F3FE4F3983ED4F386957795679584
:100B4000B795F795E7959F5FC1F7FE2B880F911D2D
:100B50009695879597F9089597F99F6780E870E0D3
:100B600060E008959FEF80EC089500240A94161623
:100B7000170618060906089500240A94121613068B
:100B8000140605060895092E0394000C11F4882319
:100B900052F0BB0F40F4BF2B11F460FF04C06F5F35
:100BA0007F4F8F4F9F4F089557FD9058440F551F0B
:100BB00059F05F3F71F04795880F97FB991F61F0DF
:100BC0009F3F79F087950895121613061406551F56
:100BD000F2CF4695F1DF08C0161617061806991FC2
:100BE000F1CF86957105610508940895E894BB27B7
:100BF00066277727CB0197F908950E943F06A59FA6
:100C0000900DB49F900DA49F800D911D1124089507
:100C10002F923F924F925F926F927F928F929F920C
:100C2000AF92BF92CF92DF92EF92FF920F931F93FA
:100C3000CF93DF93CDB7DEB7CA1BDB0B0FB6F894AB
:100C4000DEBF0FBECDBF09942A88398848885F84EB
:100C50006E847D848C849B84AA84B984C884DF805C
:100C6000EE80FD800C811B81AA81B981CE0FD11D40
:100C70000FB6F894DEBF0FBECDBFED010895A29F61
:100C8000B001B39FC001A39F700D811D1124911D60
:100C9000B29F700D811D1124911D08950E9462065E
:100CA0000C94C3050E94BC0558F00E94B50540F0A5
:100CB00029F45F3F29F00C94AC0551110C94F70511
:100CC0000C94B2050E94D40568F39923B1F355231F
:100CD00091F3951B550BBB27AA276217730784074F
:100CE00038F09F5F5F4F220F331F441FAA1FA9F3E5
:100CF00035D00E2E3AF0E0E832D091505040E695D3
:100D0000001CCAF72BD0FE2F29D0660F771F881F33
:100D1000BB1F261737074807AB07B0E809F0BB0B26
:100D2000802DBF01FF2793585F4F3AF09E3F51053A
:100D300078F00C94AC050C94F7055F3FE4F3983E13
:100D4000D4F3869577956795B795F7959F5FC9F723
:100D5000880F911D9695879597F90895E1E0660FA4
:100D6000771F881FBB1F621773078407BA0720F01D
:100D7000621B730B840BBA0BEE1F88F7E095089586
:100D80000E94C7066894B1110C94F70508950E945B
:100D9000DC0588F09F5798F0B92F9927B751B0F02C
:100DA000E1F0660F771F881F991F1AF0BA95C9F7EF
:100DB00014C0B13091F00E94F605B1E008950C9492
:100DC000F605672F782F8827B85F39F0B93FCCF345
:100DD000869577956795B395D9F73EF4909580956C
:100DE000709561957F4F8F4F9F4F0895A1E21A2E06
:100DF000AA1BBB1BFD010DC0AA1FBB1FEE1FFF1FBF
:100E0000A217B307E407F50720F0A21BB30BE40B0E
:100E1000F50B661F771F881F991F1A9469F7609555
:100E20007095809590959B01AC01BD01CF0108950F
:100E3000EE0FFF1F0590F491E02D09940F931F937F
:100E4000CF93DF938230910510F482E090E0E0913F
:100E5000CC01F091CD0130E020E0B0E0A0E030978F
:100E600099F42115310509F44AC0281B390B2430A7
:100E70003105D8F58A819B816115710589F1FB01E6
:100E800093838283FE0111C04081518102811381CD
:100E900048175907E0F04817590799F4109761F07F
:100EA00012960C93129713961C933296CF01DF91F2
:100EB000CF911F910F9108950093CC011093CD0114
:100EC000F4CF2115310551F04217530738F0A9012D
:100ED000DB019A01BD01DF01F801C1CFEF01F9CFBC
:100EE0009093CD018093CC01CDCFFE01E20FF31F93
:100EF000819391932250310939832883D7CF209150
:100F0000CA013091CB01232B41F420910201309191
:100F100003013093CB012093CA012091000130914D
:100F200001012115310541F42DB73EB7409104016F
:100F300050910501241B350BE091CA01F091CB01C2
:100F4000E217F307A0F42E1B3F0B2817390778F0A0
:100F5000AC014E5F5F4F2417350748F04E0F5F1FFF
:100F60005093CB014093CA01819391939FCFF0E0BE
:100F7000E0E09CCFCF93DF930097E9F0FC0132973C
:100F800013821282A091CC01B091CD01ED0130E02D
:100F900020E01097A1F420813181820F931F2091CE
:100FA000CA013091CB012817390709F061C0F093CD
:100FB000CB01E093CA01DF91CF910895EA01CE17EA
:100FC000DF07E8F54A815B819E0141155105B1F7C4
:100FD000E901FB83EA8349915991C40FD51FEC17AE
:100FE000FD0761F4808191810296840F951FE901CC
:100FF00099838883828193819B838A83F0E0E0E0F8
:1010000012968D919C9113970097B9F52D913C9173
:101010001197CD010296820F931F2091CA01309142
:10102000CB012817390739F6309751F51092CD01C9
:101030001092CC01B093CB01A093CA01BCCFD38353
:10104000C28340815181840F951FC817D90761F46D
:101050004E5F5F4F88819981480F591F51834083AC
:101060008A819B81938382832115310509F0B0CF5A
:10107000F093CD01E093CC019ECFFD01DC01C0CF08
:1010800013821282D7CFB0E0A0E0E9E4F8E00C943C
:101090000A068C01009751F4CB010E941E078C01B7
:1010A000C801CDB7DEB7E0E10C942606FC01E60FDF
:1010B000F71F9C0122503109E217F30708F49DC085
:1010C000D901CD91DC911197C617D70798F0C5309B
:1010D000D10530F3CE0104978617970708F3C61B96
:1010E000D70B2297C193D1936D937C93CF010E942C
:1010F000BA07D6CF5B01AC1ABD0A4C018C0E9D1EFF
:10110000A091CC01B091CD01512C412CF12CE12CBE
:10111000109731F58091CA019091CB0188159905FE
:1011200009F05CC04616570608F058C080910001CF
:1011300090910101009741F48DB79EB74091040151
:1011400050910501841B950BE817F90708F055C06D
:10115000F093CB01E093CA01F90171836083A0CFC2
:101160008D919C91119712966C90129713967C908A
:101170001397A815B90559F56C0142E0C40ED11CAE
:10118000CA14DB0420F1AC014A195B09DA0112969A
:10119000159780F06282738251834083D9016D93E9
:1011A0007C93E114F10471F0D7011396FC93EE9354
:1011B000129776CF22968C0F9D1FF9019183808321
:1011C000F301EFCFF093CD01E093CC0169CF481646
:1011D000590608F42C017D01D3019ACFCB010E945E
:1011E0001E077C01009749F0AE01B8010E9400097A
:1011F000C8010E94BA07870153CF10E000E050CF2A
:10120000FB01DC0102C001900D9241505040D8F723
:101210000895FB01DC0101900D920020E1F7089593
:1012200010E0CDE5D0E004C0FE010E941807219631
:10123000CE35D107C9F7F894FFCF0000CE0180006A
:10124000000000004601C701A70093011801B60085
:06125000CA000D0A0000B7
:107E0000112484B714BE81FFF0D085E080938100F7
:107E100082E08093C00088E18093C10086E0809377
:107E2000C20080E18093C4008EE0C9D0259A86E02C
:107E300020E33CEF91E0309385002093840096BBD3
:107E4000B09BFECF1D9AA8958150A9F7CC24DD24C4
:107E500088248394B5E0AB2EA1E19A2EF3E0BF2EE7
:107E6000A2D0813461F49FD0082FAFD0023811F036
:107E7000013811F484E001C083E08DD089C08234E0
:107E800011F484E103C0853419F485E0A6D080C0E4
:107E9000853579F488D0E82EFF2485D0082F10E0AE
:107EA000102F00270E291F29000F111F8ED06801E7
:107EB0006FC0863521F484E090D080E0DECF843638
:107EC00009F040C070D06FD0082F6DD080E0C81688
:107ED00080E7D80618F4F601B7BEE895C0E0D1E017
:107EE00062D089930C17E1F7F0E0CF16F0E7DF06D8
:107EF00018F0F601B7BEE89568D007B600FCFDCFD4
:107F0000A601A0E0B1E02C9130E011968C91119780
:107F100090E0982F8827822B932B1296FA010C0160
:107F200087BEE89511244E5F5F4FF1E0A038BF0790
:107F300051F7F601A7BEE89507B600FCFDCF97BE46
:107F4000E89526C08437B1F42ED02DD0F82E2BD052
:107F50003CD0F601EF2C8F010F5F1F4F84911BD097
:107F6000EA94F801C1F70894C11CD11CFA94CF0C13
:107F7000D11C0EC0853739F428D08EE10CD085E9AC
:107F80000AD08FE07ACF813511F488E018D01DD067
:107F900080E101D065CF982F8091C00085FFFCCF94
:107FA0009093C60008958091C00087FFFCCF809118
:107FB000C00084FD01C0A8958091C6000895E0E648
:107FC000F0E098E1908380830895EDDF803219F02E
:107FD00088E0F5DFFFCF84E1DECF1F93182FE3DFCA
:107FE0001150E9F7F2DF1F91089580E0E8DFEE27F6
:047FF000FF270994CA
:027FFE00040479
:00000001FF
