:020000040000FA
:100000000C9462000C943A050C9413050C948A002D
:100010000C948A000C948A000C948A000C948A0038
:100020000C948A000C948A000C948A000C948A0028
:100030000C948A000C948A000C948A000C948A0018
:100040000C94C9040C948A000C9497040C947104C9
:100050000C948A000C948A000C948A000C948A00F8
:100060000C948A000C948A000000000024002700F1
:100070002A0000000000250028002B0000000000DE
:1000800023002600290004040404040404040202DA
:100090000202020203030303030301020408102007
:1000A0004080010204081020010204081020000012
:1000B0000008000201000003040700000000000027
:1000C0000000610511241FBECFEFD8E0DEBFCDBF19
:1000D00011E0A0E0B1E0EEE9FDE002C005900D9274
:1000E000A835B107D9F722E0A8E5B1E001C01D921B
:1000F000A631B207E1F710E0C2E6D0E004C02197D4
:10010000FE010E94C706C136D107C9F70E94AB05A0
:100110000C94CD060C940000AF92BF92CF92DF9268
:10012000EF92FF920F931F93CF93DF936C017B01AC
:100130008B01040F151FEB015E01AE18BF08C0173D
:10014000D10759F06991D601ED91FC910190F081B0
:10015000E02DC6010995892B79F7C501DF91CF9173
:100160001F910F91FF90EF90DF90CF90BF90AF90D5
:100170000895FC01538D448D252F30E0842F90E0AD
:10018000821B930B541710F0CF9608950197089592
:10019000FC01918D828D981761F0A28DAE0FBF2F5B
:1001A000B11D5D968C91928D9F5F9F73928F90E0B1
:1001B00008958FEF9FEF0895FC01918D828D981720
:1001C00031F0828DE80FF11D858D90E008958FEF5D
:1001D0009FEF0895FC01918D228D892F90E0805C26
:1001E0009F4F821B91098F739927089581E691E0B3
:1001F0000E94EA0021E0892B09F420E0822F089573
:1002000080E090E0892B29F00E94F60081110C9487
:1002100000000895FC01A48DA80FB92FB11DA35AA9
:10022000BF4F2C91848D90E001968F739927848F16
:10023000A689B7892C93A089B1898C918370806439
:100240008C93938D848D981306C00288F389E02DDA
:1002500080818F7D80830895EF92FF920F931F938B
:10026000CF93DF93EC0181E0888F9B8D8C8D981369
:100270001AC0E889F989808185FF15C09FB7F89475
:10028000EE89FF896083E889F989808183708064C1
:1002900080839FBF81E090E0DF91CF911F910F910C
:1002A000FF90EF900895F62E0B8D10E00F5F1F4F1B
:1002B0000F731127E02E8C8D8E110CC00FB607FC2A
:1002C000FACFE889F989808185FFF5CFCE010E94B8
:1002D0000A01F1CFEB8DEC0FFD2FF11DE35AFF4F1B
:1002E000F0829FB7F8940B8FEA89FB898081806246
:1002F000CFCFCF93DF93EC01888D8823B9F0AA8903
:10030000BB89E889F9898C9185FD03C0808186FDD0
:100310000DC00FB607FCF7CF8C9185FFF2CF80811F
:1003200085FFEDCFCE010E940A01E9CFDF91CF9189
:100330000895833081F028F4813099F08230A9F05B
:1003400008958730A9F08830C9F08430B1F48091E5
:1003500080008F7D03C0809180008F778093800024
:10036000089584B58F7784BD089584B58F7DFBCFC4
:100370008091B0008F778093B00008958091B00095
:100380008F7DF9CFCF93DF93282F30E0F901E2552D
:10039000FF4F8491F901E656FF4FD491F901EA57D6
:1003A000FF4FC491CC23A1F081110E949901EC2F41
:1003B000F0E0EE0FFF1FE458FF4FA591B491EC91D0
:1003C000ED2381E090E009F480E0DF91CF91089582
:1003D00080E090E0FACF1F93CF93DF93282F30E097
:1003E000F901E255FF4F8491F901E656FF4FD49190
:1003F000F901EA57FF4FC491CC23A9F0162F8111C0
:100400000E949901EC2FF0E0EE0FFF1FEE58FF4F16
:10041000A591B4918FB7F894EC91111108C0D095C3
:10042000DE23DC938FBFDF91CF911F910895DE2BE8
:10043000F8CFCF93DF9390E0FC01E656FF4F249175
:100440008A579F4FFC0184918823D1F090E0880F58
:10045000991FFC01E859FF4FA591B491FC01EE589A
:10046000FF4FC591D49161110EC09FB7F8948C9144
:10047000E22FE0958E238C932881E223E8839FBFAF
:10048000DF91CF9108958FB7F894EC91E22BEC9324
:100490008FBFF6CF3FB7F89480915D0190915E01D8
:1004A000A0915F01B091600126B5A89B05C02F3FC8
:1004B00019F00196A11DB11D3FBFBA2FA92F982F8A
:1004C0008827BC01CD01620F711D811D911D42E085
:1004D000660F771F881F991F4A95D1F708958F924D
:1004E0009F92AF92BF92CF92DF92EF92FF924B0119
:1004F0005C010E944A026B017C010E944A026C1955
:100500007D098E099F09683E734081059105A8F316
:1005100021E0821A9108A108B10888EEC80E83E094
:10052000D81EE11CF11C81149104A104B10429F727
:10053000FF90EF90DF90CF90BF90AF909F908F9003
:1005400008950895089590E080E00895CF93DF9393
:10055000EC0160E08E810E94EB0161E08E810E94DF
:10056000EB0160E08E810E94EB018BE891E0019746
:10057000F1F7DF91CF910895CF92DF92EF92FF9242
:100580000F931F93CF93DF936C017C0187E0E80EFC
:10059000F11CD0E0C0E0062F10E0B8010C2E02C024
:1005A000759567950A94E2F76170F70181917F0173
:1005B0000E94EB012196C430D10579F7C601DF9185
:1005C000CF911F910F91FF90EF90DF90CF900C94FF
:1005D000A602CF92DF92EF92FF920F931F93CF93D9
:1005E000DF93EC01F62E642F8C810E94EB018D814C
:1005F0008F3F19F060E00E94EB010F2D10E08F8516
:1006000084FF25C06E0187E0C80ED11CF12CE12CBF
:10061000B8010E2C02C0759567950A94E2F76170D7
:10062000F60181916F010E94EB01FFEFEF1AFF0AC3
:1006300088E0E816F10461F7CE01DF91CF911F91B8
:100640000F91FF90EF90DF90CF900C94A602B8012D
:1006500084E0759567958A95E1F7CE010E94BC020A
:100660006F2DCE01DF91CF911F910F91FF90EF90F1
:10067000DF90CF900C94BC0240E0682F8EEF91E0A9
:100680000C94E90281E00E943C038BE39FE1019717
:10069000F1F70895CF93DF93823029F490910D0202
:1006A000986090930D02809311021092120280E4E0
:1006B0008093130280E18093140280E580931502F9
:1006C00061E0809102020E941902809103028F3F33
:1006D00019F061E00E94190261E0809104020E9419
:1006E0001902CEEFD1E09E012E5F314080910D02C4
:1006F00084FD0BC084E090E021962817390744F46C
:1007000061E08E810E941902EECF88E090E0F4CF84
:100710008BE39DE00197F1F760E0809102020E9477
:10072000EB0160E0809104020E94EB0180910302E2
:100730008F3F19F060E00E94EB0180910D0284FD73
:1007400034C063E08EEF91E00E94BC02CBE4D6E4BB
:10075000CE010197F1F763E08EEF91E00E94BC02B9
:100760002197F1F763E08EEF91E00E94BC0283E5F0
:1007700092E00197F1F762E08EEF91E00E94BC02F7
:1007800080910D0280620E943C0384E080930E02FF
:100790008CE00E943C030E94420382E080930F029F
:1007A00086E0DF91CF910C943C0380620E943C0371
:1007B0008BE496E40197F1F780910D0280620E942C
:1007C0003C0383E592E00197F1F780910D0280628E
:1007D0000E943C03D5CFE1E0809111028111E0E05D
:1007E000E195F0E0E250FE4F8489885F80680C94C8
:1007F0003C0341E00E94E90281E090E00895FB01A2
:1008000001900020E9F73197AF01461B570BDC013F
:10081000ED91FC910280F381E02D0994CF93DF9359
:10082000BC0181E691E00E94FF03EC0162E271E00D
:1008300081E691E00E94FF038C0F9D1FDF91CF9115
:100840000895EF92FF920F931F93CF93DF9384E06D
:100850000E94C2017C0188E00E94C2018C0186E0F6
:100860000E94C201EC01EA94EF2821F485E291E0B4
:100870000E940E040130110521F483E391E00E94EF
:100880000E04219751F483E491E0DF91CF911F9101
:100890000F91FF90EF900C940E04DF91CF911F9178
:1008A0000F91FF90EF900895CF93DF93CDB7DEB710
:1008B000A1970FB6F894DEBF0FBECDBF19A2805D21
:1008C00088A3BE01605E7F4F8EEF91E00E94FF0320
:1008D000A1960FB6F894DEBF0FBECDBFDF91CF91CA
:1008E00008951F920F920FB60F9211242F933F93EA
:1008F0004F935F936F937F938F939F93AF93BF9328
:10090000EF93FF9381E691E00E940A01FF91EF913E
:10091000BF91AF919F918F917F916F915F914F9117
:100920003F912F910F900FBE0F901F9018951F921F
:100930000F920FB60F9211242F938F939F93EF93E3
:10094000FF93E0917101F09172018081E091770154
:10095000F091780182FD1BC0908180917A018F5FB8
:100960008F7320917B01821741F0E0917A01F0E0D2
:10097000EF59FE4F958F80937A01FF91EF919F91F0
:100980008F912F910F900FBE0F901F90189580811F
:10099000F4CF1F920F920FB60F9211242F933F9313
:1009A0008F939F93AF93BF938091590190915A0178
:1009B000A0915B01B0915C013091580123E0230FBD
:1009C0002D3758F50196A11DB11D20935801809334
:1009D000590190935A01A0935B01B0935C018091FF
:1009E0005D0190915E01A0915F01B091600101965F
:1009F000A11DB11D80935D0190935E01A0935F01E5
:100A0000B0936001BF91AF919F918F913F912F91D2
:100A10000F900FBE0F901F90189526E8230F029697
:100A2000A11DB11DD2CF1F920F920FB60F921124AC
:100A30002F933F934F935F936F937F938F939F93E6
:100A4000AF93BF93EF93FF93E0910201F091030105
:100A50000995FF91EF91BF91AF919F918F917F91F8
:100A60006F915F914F913F912F910F900FBE0F901B
:100A70001F9018951F920F920FB60F9211242F936B
:100A80003F934F935F936F937F938F939F93AF9316
:100A9000BF93EF93FF93E0910001F091010109955D
:100AA000FF91EF91BF91AF919F918F917F916F9146
:100AB0005F914F913F912F910F900FBE0F901F901C
:100AC0001895E1E6F1E01382128288EE93E0A0E04F
:100AD000B0E084839583A683B78388E091E0918317
:100AE000808385EC90E09587848784EC90E09787FD
:100AF000868780EC90E0918B808B81EC90E0938BEB
:100B0000828B82EC90E0958B848B86EC90E0978BC7
:100B1000868B118E128E138E148EEEEFF1E01382FF
:100B200012828AE191E0918380838EE084838FE05A
:100B3000858380E186838AE087838BE080878CE0F1
:100B400081878DE082871386148615861686178620
:100B500081E00C944A03789484B5826084BD84B5A6
:100B6000816084BD85B5826085BD85B5816085BDA8
:100B700080916E00816080936E0010928100809160
:100B800081008260809381008091810081608093E8
:100B90008100809180008160809380008091B1000D
:100BA00084608093B1008091B00081608093B00038
:100BB00080917A00846080937A0080917A008260CC
:100BC00080937A0080917A00816080937A0080918E
:100BD0007A00806880937A001092C10061E084E01E
:100BE0000E94190261E086E00E94190261E088E03B
:100BF0000E94190260E082E00E94190281E294E002
:100C0000909301018093000180916900836080933B
:100C10006900E89AE0917101F091720182E08083AD
:100C2000E0916D01F0916E011082E0916F01F09101
:100C300070018FEC808310927901E0917501F09141
:100C4000760186E08083E0917301F09174018081E8
:100C500080618083E0917301F091740180818860EC
:100C60008083E0917301F0917401808180688083BA
:100C7000E0917301F091740180818F7D808382E027
:100C80000E944A03C0E0D0E082E00E94C2010197C6
:100C900011F40E94210460E084E00E94EB0161E015
:100CA00086E00E94EB0160E088E00E94EB010E9478
:100CB00042030E94EB0383E090E00E94540468EE3C
:100CC00073E080E090E00E946F020E9442030E9465
:100CD000EB0382E090E00E94540468EE73E080E051
:100CE00090E00E946F020E9442030E94EB0381E0A9
:100CF00090E00E94540468EE73E080E090E00E946F
:100D00006F020E9442030E94EB0390E080E00E9489
:100D1000540468EE73E080E090E00E946F0261E0AE
:100D200084E00E94EB0160E086E00E94EB0160E05D
:100D300088E00E94EB0160E177E280E090E00E94B1
:100D40006F0282E00E94C201019721F484E591E0E4
:100D50000E940E0460E084E00E94EB0160E086E007
:100D60000E94EB0161E088E00E94EB0160E177E224
:100D700080E090E00E946F02209709F485CF0E94E6
:100D8000F600882309F480CF0E9400007DCFEE0F8B
:100D9000FF1F0590F491E02D0994F894FFCFA10274
:100DA000A102000000002C018C00B9007901EA00CA
:100DB000C800DC0000000000F9038C00A302A202BE
:100DC0000D0A00726564206C656420696E206F6E88
:100DD00000677265656E206C656420696E206F6EB9
:100DE0000079656C6C6F77206C656420696E206F8C
:060DF0006E00676F0000B9
:107E0000112484B714BE81FFF0D085E080938100F7
:107E100082E08093C00088E18093C10086E0809377
:107E2000C20080E18093C4008EE0C9D0259A86E02C
:107E300020E33CEF91E0309385002093840096BBD3
:107E4000B09BFECF1D9AA8958150A9F7CC24DD24C4
:107E500088248394B5E0AB2EA1E19A2EF3E0BF2EE7
:107E6000A2D0813461F49FD0082FAFD0023811F036
:107E7000013811F484E001C083E08DD089C08234E0
:107E800011F484E103C0853419F485E0A6D080C0E4
:107E9000853579F488D0E82EFF2485D0082F10E0AE
:107EA000102F00270E291F29000F111F8ED06801E7
:107EB0006FC0863521F484E090D080E0DECF843638
:107EC00009F040C070D06FD0082F6DD080E0C81688
:107ED00080E7D80618F4F601B7BEE895C0E0D1E017
:107EE00062D089930C17E1F7F0E0CF16F0E7DF06D8
:107EF00018F0F601B7BEE89568D007B600FCFDCFD4
:107F0000A601A0E0B1E02C9130E011968C91119780
:107F100090E0982F8827822B932B1296FA010C0160
:107F200087BEE89511244E5F5F4FF1E0A038BF0790
:107F300051F7F601A7BEE89507B600FCFDCF97BE46
:107F4000E89526C08437B1F42ED02DD0F82E2BD052
:107F50003CD0F601EF2C8F010F5F1F4F84911BD097
:107F6000EA94F801C1F70894C11CD11CFA94CF0C13
:107F7000D11C0EC0853739F428D08EE10CD085E9AC
:107F80000AD08FE07ACF813511F488E018D01DD067
:107F900080E101D065CF982F8091C00085FFFCCF94
:107FA0009093C60008958091C00087FFFCCF809118
:107FB000C00084FD01C0A8958091C6000895E0E648
:107FC000F0E098E1908380830895EDDF803219F02E
:107FD00088E0F5DFFFCF84E1DECF1F93182FE3DFCA
:107FE0001150E9F7F2DF1F91089580E0E8DFEE27F6
:047FF000FF270994CA
:027FFE00040479
:00000001FF
