:100000000C945D000C9485000C9485000C94850084
:100010000C9485000C9485000C9485000C9485004C
:100020000C9485000C9485000C9485000C9485003C
:100030000C9485000C9485000C9485000C9485002C
:100040000C942D020C9485000C949D020C94770264
:100050000C9485000C9485000C9485000C9485000C
:100060000C9485000C94850000000008000201003B
:100070000003040700000000000000000000000072
:10008000250028002B0000000000240027002A0083
:10009000040404040404040402020202020203032E
:1000A0000303030301020408102040800102040836
:1000B0001020010204081020330411241FBECFEFCA
:1000C000D8E0DEBFCDBF21E0A8E3B1E001C01D92C2
:1000D000A03EB207E1F711E0A0E0B1E0E8E4F9E00A
:1000E00002C005900D92A833B107D9F710E0CDE515
:1000F000D0E004C02197FE010E949C04CC35D107BA
:10010000C9F70E94CF020C94A2040C940000AF9295
:10011000BF92CF92DF92EF92FF920F931F93CF93F4
:10012000DF936C017B018B01040F151FEB015E0156
:10013000AE18BF08C017D10759F06991D601ED91EB
:10014000FC910190F081E02DC6010995892B79F78A
:10015000C501DF91CF911F910F91FF90EF90DF903C
:10016000CF90BF90AF900895FC01538D448D252F03
:1001700030E0842F90E0821B930B541710F0CF9641
:10018000089501970895FC01918D828D981761F073
:10019000A28DAE0FBF2FB11D5D968C91928D9F5F8A
:1001A0009F73928F90E008958FEF9FEF0895FC0169
:1001B000918D828D981731F0828DE80FF11D858D1C
:1001C00090E008958FEF9FEF08952FB7F8948091F6
:1001D0003F0190914001A0914101B09142012FBF98
:1001E00080934B0190934C01A0934D01B0934E012D
:1001F00083E491E00E94D70097FF26C02FB7F894C0
:1002000080913F0190914001A0914101B091420144
:100210002FBF40914B0150914C0160914D01709165
:100220004E01841B950BA60BB70B409147015091D3
:1002300048016091490170914A0184179507A6070A
:10024000B707B0F28FEF9FEF0895FC01918D228DDB
:10025000892F90E0805C9F4F821B91098F739927B3
:10026000089583E491E00E94250121E0892B09F49F
:1002700020E0822F089580E090E0892B29F00E94F1
:10028000310181110C9400000895FC01A48DA80F88
:10029000B92FB11DA35ABF4F2C91848D90E00196C8
:1002A0008F739927848FA689B7892C93A089B189E8
:1002B0008C91837080648C93938D848D981306C089
:1002C0000288F389E02D80818F7D80830895EF92ED
:1002D000FF920F931F93CF93DF93EC0181E0888F00
:1002E0009B8D8C8D98131AC0E889F989808185FFD0
:1002F00015C09FB7F894EE89FF896083E889F98972
:1003000080818370806480839FBF81E090E0DF9173
:10031000CF911F910F91FF90EF900895F62E0B8DC6
:1003200010E00F5F1F4F0F731127E02E8C8D8E1181
:100330000CC00FB607FCFACFE889F989808185FFE8
:10034000F5CFCE010E944501F1CFEB8DEC0FFD2FD3
:10035000F11DE35AFF4FF0829FB7F8940B8FEA89A3
:10036000FB8980818062CFCFCF93DF93EC01888DB2
:100370008823B9F0AA89BB89E889F9898C9185FD20
:1003800003C0808186FD0DC00FB607FCF7CF8C91AE
:1003900085FFF2CF808185FFEDCFCE010E94450120
:1003A000E9CFDF91CF91089590E0FC01E859FF4F2C
:1003B0002491FC01EC55FF4F3491FC01E057FF4FB5
:1003C000E491EE23C9F0222339F0233001F1A8F49F
:1003D000213019F1223029F1F0E0EE0FFF1FE4582F
:1003E000FF4FA591B4918FB7F894EC91611126C09D
:1003F00030953E233C938FBF08952730A9F02830D5
:10040000C9F0243049F7809180008F7D03C080912E
:1004100080008F7780938000DFCF84B58F7784BD95
:10042000DBCF84B58F7DFBCF8091B0008F77809339
:10043000B000D2CF8091B0008F7DF9CF3E2BDACFC4
:10044000FC0101900020E9F73197AF01481B590BDF
:10045000BC0183E491E00C9487001F920F920FB6C9
:100460000F9211242F933F938F939F93AF93BF933A
:1004700080913F0190914001A0914101B0914201D2
:1004800030913E0123E0230F2D3758F50196A11D31
:10049000B11D20933E0180933F0190934001A093B2
:1004A0004101B093420180913A0190913B01A091AA
:1004B0003C01B0913D010196A11DB11D80933A010F
:1004C00090933B01A0933C01B0933D01BF91AF914C
:1004D0009F918F913F912F910F900FBE0F901F9082
:1004E000189526E8230F0296A11DB11DD2CF1F92A9
:1004F0000F920FB60F9211242F933F934F935F9358
:100500006F937F938F939F93AF93BF93EF93FF93DB
:1005100083E491E00E944501FF91EF91BF91AF917B
:100520009F918F917F916F915F914F913F912F910B
:100530000F900FBE0F901F9018951F920F920FB63D
:100540000F9211242F938F939F93EF93FF93E0913A
:100550005301F09154018081E0915901F0915A01C9
:1005600082FD1BC0908180915C018F5F8F73209111
:100570005D01821741F0E0915C01F0E0ED5BFE4F20
:10058000958F80935C01FF91EF919F918F912F91B7
:100590000F900FBE0F901F9018958081F4CFCF93CE
:1005A000DF93CDB7DEB7A1970FB6F894DEBF0FBECD
:1005B000CDBF789484B5826084BD84B5816084BDEC
:1005C00085B5826085BD85B5816085BD80916E00F1
:1005D000816080936E001092810080918100826022
:1005E000809381008091810081608093810080915F
:1005F00080008160809380008091B100846080934E
:10060000B1008091B00081608093B00080917A0049
:10061000846080937A0080917A00826080937A006F
:1006200080917A00816080937A0080917A0080685E
:1006300080937A001092C100E9EAF0E02491E5E9A4
:10064000F0E08491882399F090E0880F991FFC01D5
:10065000EA57FF4FA591B491FC01E458FF4F8591F3
:1006600094918FB7F894EC91E22BEC938FBFE091CB
:100670005301F091540182E08083E0914F01F091A9
:1006800050011082E0915101F09152018FEC808372
:1006900010925B01E0915701F091580186E0808350
:1006A000E0915501F0915601808180618083E09155
:1006B0005501F0915601808188608083E091550159
:1006C000F0915601808180688083E0915501F0911E
:1006D000560180818F7D808382E191E00E9420021B
:1006E00085E391E00E9420028AE0882E912CA12CC3
:1006F000B12C00E010E083E491E00E94250118167F
:1007000019060CF082C00E94E500FC0197FD91C023
:100710008D32910521F0C0970A9708F082C0C12C54
:10072000D12C7601712CE130F105D9F0ED32F105D3
:1007300009F47CC0CF01C0970A9798F4AAE0B0E012
:10074000A70196010E9460046F01FF0FEE08FF08E9
:10075000C60ED71EE81EF91E80E3C81AD108E108AC
:10076000F10883E491E00E94C3000E94E500FC01CF
:10077000C0970A97C0F2E130F105A9F2772041F065
:10078000F094E094D094C094C11CD11CE11CF11CE5
:10079000D0923901C09238010D2C000CEE08FF08F0
:1007A000F7FE4BC06DE283E491E00E9467012227CF
:1007B0003327A9012C193D094E095F0919A2FE0131
:1007C000B1967F01CA01B901A50194010E947A0482
:1007D000605DF70162937F012115310541055105E7
:1007E00089F7E114F10419F0C7010E9420028091F9
:1007F00038019091390161E08130910519F0892B20
:1008000021F460E085E00E94D4010115110509F48E
:1008100072CF0E943101882309F46DCF0E9400003D
:100820006ACF83E491E00E94C3006DCF7724739474
:1008300098CFC12CD12C7601ABCFA701960119A27C
:10084000CE0181967C01CA01B901A50194010E94E3
:100850007A04605DF70162937F012115310541053E
:10086000510589F7BECFE3E4F1E01382128288EEEE
:1008700093E0A0E0B0E084839583A683B78384E00F
:1008800091E09183808385EC90E09587848784EC68
:1008900090E09787868780EC90E0918B808B81EC4D
:1008A00090E0938B828B82EC90E0958B848B86EC2E
:1008B00090E0978B868B118E128E138E148E089576
:1008C0000E946B04A59F900DB49F900DA49F800D76
:1008D000911D11240895A29FB001B39FC001A39F51
:1008E000700D811D1124911DB29F700D811D112469
:1008F000911D0895A1E21A2EAA1BBB1BFD010DC07C
:10090000AA1FBB1FEE1FFF1FA217B307E407F507BF
:1009100020F0A21BB30BE40BF50B661F771F881F9B
:10092000991F1A9469F760957095809590959B0131
:10093000AC01BD01CF010895EE0FFF1F0590F491AA
:08094000E02D0994F894FFCFAB
:100948000000000067018700B400B4012501C3005E
:10095800D7006C6564206F6E203D3D20656E746520
:100968007220312C6C6564206F66663D3D656E743F
:0809780065722032000D0A0037
:00000001FF
