:100000000C945D000C9485000C9485000C94850084
:100010000C9485000C9485000C9485000C9485004C
:100020000C9485000C9485000C9485000C94E102DE
:100030000C9485000C9485000C9485000C9485002C
:100040000C943F020C9485000C94AF020C9489022E
:100050000C9485000C9485000C9485000C9485000C
:100060000C9485000C94850000000008000201003B
:100070000003040700000000000000000000000072
:10008000250028002B0000000000240027002A0083
:10009000040404040404040402020202020203032E
:1000A0000303030301020408102040800102040836
:1000B00010200102040810209D0311241FBECFEF61
:1000C000D8E0DEBFCDBF11E0A0E0B1E0E8E0FDE0A8
:1000D00002C005900D92A631B107D9F721E0A6E143
:1000E000B1E001C01D92A53EB207E1F710E0CDE5F9
:1000F000D0E004C02197FE010E947C06CC35D107D8
:10010000C9F70E94FA030C9482060C94000090E058
:10011000FC01EC55FF4F249180579F4FFC018491C7
:10012000882399F090E0880F991FFC01EA57FF4F50
:10013000A591B491FC01E458FF4F859194918FB73C
:10014000F894EC91E22BEC938FBF0895AF92BF929D
:10015000CF92DF92EF92FF920F931F93CF93DF9393
:100160006C017B018B01040F151FEB015E01AE18C2
:10017000BF08C017D10759F06991D601ED91FC91E4
:100180000190F081E02DC6010995892B79F7C50111
:10019000DF91CF911F910F91FF90EF90DF90CF9063
:1001A000BF90AF900895FC01538D448D252F30E012
:1001B000842F90E0821B930B541710F0CF96089574
:1001C00001970895FC01918D828D981761F0A28DA1
:1001D000AE0FBF2FB11D5D968C91928D9F5F9F7367
:1001E000928F90E008958FEF9FEF0895FC01918D1D
:1001F000828D981731F0828DE80FF11D858D90E08A
:1002000008958FEF9FEF08952FB7F89480911C0108
:1002100090911D01A0911E01B0911F012FBF8093ED
:10022000280190932901A0932A01B0932B0180E229
:1002300091E00E94F60097FF26C02FB7F8948091B6
:100240001C0190911D01A0911E01B0911F012FBFB3
:10025000409128015091290160912A0170912B0150
:10026000841B950BA60BB70B4091240150912501DF
:10027000609126017091270184179507A607B7079B
:10028000B0F28FEF9FEF0895FC01918D228D892FA1
:1002900090E0805C9F4F821B91098F73992708958E
:1002A00080E291E00E94440121E0892B09F420E0E2
:1002B000822F089580E090E0892B29F00E94500160
:1002C00081110C9400000895FC01A48DA80FB92F92
:1002D000B11DA35ABF4F2C91848D90E001968F736E
:1002E0009927848FA689B7892C93A089B1898C918D
:1002F000837080648C93938D848D981306C00288DC
:10030000F389E02D80818F7D80830895EF92FF92A5
:100310000F931F93CF93DF93EC0181E0888F9B8D28
:100320008C8D98131AC0E889F989808185FF15C0E2
:100330009FB7F894EE89FF896083E889F989808105
:100340008370806480839FBF81E090E0DF91CF91D4
:100350001F910F91FF90EF900895F62E0B8D10E0F6
:100360000F5F1F4F0F731127E02E8C8D8E110CC065
:100370000FB607FCFACFE889F989808185FFF5CFB0
:10038000CE010E946401F1CFEB8DEC0FFD2FF11D2A
:10039000E35AFF4FF0829FB7F8940B8FEA89FB89ED
:1003A00080818062CFCFCF93DF93EC01888D88234B
:1003B000B9F0AA89BB89E889F9898C9185FD03C0C8
:1003C000808186FD0DC00FB607FCF7CF8C9185FFAD
:1003D000F2CF808185FFEDCFCE010E946401E9CF8D
:1003E000DF91CF91089590E0FC01E859FF4F2491EF
:1003F000FC01EC55FF4F3491FC01E057FF4FE491B5
:10040000EE23C9F0222339F0233001F1A8F4213082
:1004100019F1223029F1F0E0EE0FFF1FE458FF4FF1
:10042000A591B4918FB7F894EC91611126C03095E5
:100430003E233C938FBF08952730A9F02830C9F0A0
:10044000243049F7809180008F7D03C08091800027
:100450008F7780938000DFCF84B58F7784BDDBCF2B
:1004600084B58F7DFBCF8091B0008F778093B000F3
:10047000D2CF8091B0008F7DF9CF3E2BDACF1F9283
:100480000F920FB60F9211242F933F938F939F9348
:10049000AF93BF9380911C0190911D01A0911E010B
:1004A000B0911F0130911B0123E0230F2D3758F528
:1004B0000196A11DB11D20931B0180931C019093F7
:1004C0001D01A0931E01B0931F018091170190910F
:1004D0001801A0911901B0911A010196A11DB11D39
:1004E0008093170190931801A0931901B0931A01FA
:1004F000BF91AF919F918F913F912F910F900FBE20
:100500000F901F90189526E8230F0296A11DB11D8C
:10051000D2CF1F920F920FB60F9211242F933F93B9
:100520004F935F936F937F938F939F93AF93BF93FB
:10053000EF93FF9380E291E00E946401FF91EF91BD
:10054000BF91AF919F918F917F916F915F914F91EB
:100550003F912F910F900FBE0F901F9018951F92F3
:100560000F920FB60F9211242F938F939F93EF93B7
:10057000FF93E0913001F09131018081E0913601EB
:10058000F091370182FD1BC09081809139018F5F0E
:100590008F7320913A01821741F0E0913901F0E028
:1005A000E05EFE4F958F80933901FF91EF919F910F
:1005B0008F912F910F900FBE0F901F9018958081F3
:1005C000F4CF1F920F920FB60F9211242F933F93E7
:1005D0004F935F936F937F938F939F93AF93BF934B
:1005E000CF93DF93EF93FF9380911601C091E101C8
:1005F000D0E087FF24C01092850010928400809183
:1006000016018F5F8093160180911601082E000C51
:10061000990B8C179D0724F4809116018C30C4F13E
:100620008091840090918500049680349C4908F460
:100630007AC08091840090918500049676C0809164
:100640001601082E000C990B8C179D07C4F6E0913B
:1006500016018E2FEE0F990BFC01EE0FFF1FE80F16
:10066000F91FE354FE4F808186FFC9CFE091160148
:100670008E2FEE0F990BFC01EE0FFF1FE80FF91FF5
:10068000E354FE4F808160E08F730E94F301B7CF87
:100690002091840030918500E09116018E2FEE0F9D
:1006A000990BFC01EE0FFF1FE80FF91FE354FE4FFB
:1006B00081819281820F931F90938900809388009B
:1006C000E09116018E2FEE0F990BFC01EE0FFF1F2C
:1006D000E80FF91FE354FE4F808186FF11C0E091BF
:1006E00016018E2FEE0F990BFC01EE0FFF1FE80F86
:1006F000F91FE354FE4F808161E08F730E94F30184
:10070000FF91EF91DF91CF91BF91AF919F918F9129
:100710007F916F915F914F913F912F910F900FBEFD
:100720000F901F90189580E49CE990938900809326
:1007300088008FEF80931601E3CF1092230110926F
:10074000220188EE93E0A0E0B0E080932401909332
:100750002501A0932601B093270184E091E09093B6
:1007600021018093200185EC90E090932D018093EE
:100770002C0184EC90E090932F0180932E0180EC6B
:1007800090E0909331018093300181EC90E0909360
:1007900033018093320182EC90E090933501809395
:1007A000340186EC90E090933701809336011092EB
:1007B000390110923A0110923B0110923C01809154
:1007C000E1018C3098F491E0980F9093E1018093CF
:1007D000E20190E0FC01EE0FFF1FE80FF91FE35468
:1007E000FE4F88EB9BE09283818308958FEF809387
:1007F000E2010895CF93DF93CDB7DEB7A1970FB68F
:10080000F894DEBF0FBECDBF789484B5826084BDFE
:1008100084B5816084BD85B5826085BD85B5816004
:1008200085BD80916E00816080936E001092810082
:10083000809181008260809381008091810081603D
:1008400080938100809180008160809380008091FE
:10085000B10084608093B1008091B000816080938A
:10086000B00080917A00846080937A0080917A0051
:10087000826080937A0080917A00816080937A0010
:1008800080917A00806880937A001092C10086E09F
:100890000E9487008091E2018C3008F052C086E00F
:1008A0000E9487008091E201282F30E0F901EE0FCD
:1008B000FF1FE20FF31FE354FE4F9081907C966080
:1008C00090839EE89093E30194E69093E4012CE0FA
:1008D000622F0E947006829FB001112430E020E058
:1008E000AB01420F531FFA01EE0FFF1FE40FF51F7C
:1008F000E354FE4F908196FD16C02F5F3F4F2C3082
:10090000310571F781110FC01092800082E0809351
:1009100081001092850010928400B19A80916F003E
:10092000826080936F00E091E2018E2F90E0FC01E5
:10093000EE0FFF1FE80FF91FE354FE4F8081806424
:100940008083E0913001F091310182E08083E09179
:100950002C01F0912D011082E0912E01F0912F01D8
:100960008FEC808310923801E0913401F0913501D1
:1009700086E08083E0913201F091330180818061D3
:100980008083E0913201F09133018081886080831F
:10099000E0913201F0913301808180688083E091A1
:1009A0003201F091330180818F7D8083B8E52B2E59
:1009B000B2E03B2E14EB412E512C612C712C0AE03D
:1009C000802E912CA12CB12C80E291E00E94440158
:1009D000181619060CF0F8C00E940401FC0197FDDE
:1009E00002C18D32910541F0C0970A9728F080E24C
:1009F00091E00E94E200F0CFC12CD12C760110E0F2
:100A0000E130F105D9F0ED32F10509F4EAC0CF018A
:100A1000C0970A9798F4AAE0B0E0A70196010E9457
:100A20002C066F01FF0FEE08FF08C60ED71EE81E4A
:100A3000F91E40E3C41AD108E108F10880E291E010
:100A40000E94E2000E940401FC01C0970A97C0F2D4
:100A5000E130F105A9F2112341F0F094E094D09433
:100A6000C094C11CD11CE11CF11C86010D2C000C92
:100A7000EE08FF08F7FEBBC06DE280E291E00E9445
:100A8000860122273327A9012C193D094E095F0948
:100A900019A2CE0181967C01CA01B901A501940178
:100AA0000E943F06605DF70162937F0121153105C9
:100AB0004105510589F7E114F10461F0019000202E
:100AC000E9F73197AF014E195F09B70180E291E074
:100AD0000E94A60042E050E062E171E080E291E015
:100AE0000E94A6000032F2E01F07D4F58091E301D6
:100AF000E8E8CE2ED12CC81AD10887FDD394CC0CAF
:100B0000DD1CCC0CDD1C0D2C000CEE08FF088091C8
:100B1000E4019101281B310987FD3395220F331F12
:100B2000220F331F032E000C440B550B2C193D09CB
:100B30004E095F09D801053B110514F0A4EBB0E0A4
:100B4000B7FF02C0B0E0A0E00E943706A301920107
:100B50000E940D0689019A010C0D1D1D2E1D3F1DC1
:100B60002091E2012C3080F58091E30148E850E0CB
:100B7000481B510987FD5395CA01880F991F880F9B
:100B8000991F0817190784F08091E401F101E81B0F
:100B9000F10987FDF395CF01880F991F880F991FE1
:100BA000081719070CF4C8010297880F991F4FB74F
:100BB000F89430E0F901EE0FFF1FE20FF31FE3544A
:100BC000FE4F928381834FBF40E050E0452B09F4F4
:100BD000FBCE0E945001882309F4F6CE0E9400004B
:100BE000F3CE11E02BCFC12CD12C76013ECFA70143
:100BF000960119A2CE0181967C01CA01B901A50115
:100C000094010E943F06605DF70162937F01211508
:100C100031054105510589F74ECF052E97FB1EF48E
:100C200000940E94240657FD07D00E943F0607FC4F
:100C300003D04EF40C9424065095409530952195A0
:100C40003F4F4F4F5F4F08959095809570956195F8
:100C50007F4F8F4F9F4F08950E946106A59F900D73
:100C6000B49F900DA49F800D911D11240895B7FF8E
:100C70000C942C060E942C06821B930B0895A1E273
:100C80001A2EAA1BBB1BFD010DC0AA1FBB1FEE1F06
:100C9000FF1FA217B307E407F50720F0A21BB30B51
:100CA000E40BF50B661F771F881F991F1A9469F7CD
:100CB00060957095809590959B01AC01BD01CF0129
:100CC0000895A29FB001B39FC001A39F700D811D25
:100CD0001124911DB29F700D811D1124911D089545
:100CE000991B79E004C0991F961708F0961B881F7E
:100CF0007A95C9F780950895EE0FFF1F0590F4913E
:080D0000E02D0994F894FFCFE7
:100D0800000000008601A600D300D3014401E200E0
:060D1800F6000D0A0000C8
:00000001FF
