:020000040000FA
:100000000C945E000C9486000C9486000C94860080
:100010000C9486000C9486000C9486000C94860048
:100020000C9486000C9486000C9486000C94860038
:100030000C9486000C9486000C9486000C94860028
:100040000C94AF020C9486000C947D020C94570221
:100050000C9486000C9486000C9486000C94860008
:100060000C9486000C948600000000080002010039
:100070000003040700000000000000000000000072
:10008000250028002B0000000000240027002A0083
:10009000040404040404040402020202020203032E
:1000A0000303030301020408102040800102040836
:1000B0001020010204081020F902ED0411241FBED3
:1000C000CFEFD8E0DEBFCDBF21E0A8E4B1E001C0B2
:1000D0001D92A83FB207E1F711E0A0E0B1E0E4E62D
:1000E000FEE002C005900D92A834B107D9F710E0E8
:1000F000CDE5D0E004C02197FE010E942D05CC354E
:10010000D107C9F70E9480030C9425070C940000C6
:1001100090E0FC01EC55FF4F249180579F4FFC016C
:100120008491882399F090E0880F991FFC01EA5789
:10013000FF4FA591B491FC01E458FF4F8591949134
:100140008FB7F894EC91E22BEC938FBF0895AF92A8
:10015000BF92CF92DF92EF92FF920F931F93CF93B4
:10016000DF936C017B018B01040F151FEB015E0116
:10017000AE18BF08C017D10759F06991D601ED91AB
:10018000FC910190F081E02DC6010995892B79F74A
:10019000C501DF91CF911F910F91FF90EF90DF90FC
:1001A000CF90BF90AF900895FC01538D448D252FC3
:1001B00030E0842F90E0821B930B541710F0CF9601
:1001C000089501970895FC01918D828D981761F033
:1001D000A28DAE0FBF2FB11D5D968C91928D9F5F4A
:1001E0009F73928F90E008958FEF9FEF0895FC0129
:1001F000918D828D981731F0828DE80FF11D858DDC
:1002000090E008958FEF9FEF0895FC01918D228D6E
:10021000892F90E0805C9F4F821B91098F739927F3
:10022000089581E591E00E94050121E0892B09F400
:1002300020E0822F089580E090E0892B29F00E9431
:10024000110181110C9400000895FC01A48DA80FE8
:10025000B92FB11DA35ABF4F2C91848D90E0019608
:100260008F739927848FA689B7892C93A089B18928
:100270008C91837080648C93938D848D981306C0C9
:100280000288F389E02D80818F7D80830895EF922D
:10029000FF920F931F93CF93DF93EC0181E0888F40
:1002A0009B8D8C8D98131AC0E889F989808185FF10
:1002B00015C09FB7F894EE89FF896083E889F989B2
:1002C00080818370806480839FBF81E090E0DF91B4
:1002D000CF911F910F91FF90EF900895F62E0B8D07
:1002E00010E00F5F1F4F0F731127E02E8C8D8E11C2
:1002F0000CC00FB607FCFACFE889F989808185FF29
:10030000F5CFCE010E942501F1CFEB8DEC0FFD2F33
:10031000F11DE35AFF4FF0829FB7F8940B8FEA89E3
:10032000FB8980818062CFCFCF93DF93EC01888DF2
:100330008823B9F0AA89BB89E889F9898C9185FD60
:1003400003C0808186FD0DC00FB607FCF7CF8C91EE
:1003500085FFF2CF808185FFEDCFCE010E94250180
:10036000E9CFDF91CF91089590E0FC01E859FF4F6C
:100370002491FC01EC55FF4F3491FC01E057FF4FF5
:10038000E491EE23C9F0222339F0233001F1A8F4DF
:10039000213019F1223029F1F0E0EE0FFF1FE4586F
:1003A000FF4FA591B4918FB7F894EC91611126C0DD
:1003B00030953E233C938FBF08952730A9F0283015
:1003C000C9F0243049F7809180008F7D03C080916F
:1003D00080008F7780938000DFCF84B58F7784BDD6
:1003E000DBCF84B58F7DFBCF8091B0008F7780937A
:1003F000B000D2CF8091B0008F7DF9CF3E2BDACF05
:100400003FB7F89480914D0190914E01A0914F011A
:10041000B091500126B5A89B05C02F3F19F0019659
:10042000A11DB11D3FBFBA2FA92F982F8827BC014E
:10043000CD01620F711D811D911D42E0660F771F76
:10044000881F991F4A95D1F708958F929F92AF9276
:10045000BF92CF92DF92EF92FF924B015C010E941C
:1004600000026B017C010E9400026C197D098E095B
:100470009F09683E734081059105A8F321E0821A27
:100480009108A108B10888EEC80E83E0D81EE11CCF
:10049000F11C81149104A104B10429F7FF90EF909D
:1004A000DF90CF90BF90AF909F908F9008951F9254
:1004B0000F920FB60F9211242F933F934F935F9398
:1004C0006F937F938F939F93AF93BF93EF93FF931C
:1004D00081E591E00E942501FF91EF91BF91AF91DD
:1004E0009F918F917F916F915F914F913F912F914C
:1004F0000F900FBE0F901F9018951F920F920FB67E
:100500000F9211242F938F939F93EF93FF93E0917A
:100510006101F09162018081E0916701F0916801D1
:1005200082FD1BC0908180916A018F5F8F73209143
:100530006B01821741F0E0916A01F0E0EF5AFE4F43
:10054000958F80936A01FF91EF919F918F912F91E9
:100550000F900FBE0F901F9018958081F4CF1F92BF
:100560000F920FB60F9211242F933F938F939F9367
:10057000AF93BF938091490190914A01A0914B01A3
:10058000B0914C013091480123E0230F2D3758F5ED
:100590000196A11DB11D20934801809349019093BC
:1005A0004A01A0934B01B0934C0180914D01909171
:1005B0004E01A0914F01B09150010196A11DB11DB6
:1005C00080934D0190934E01A0934F01B093500141
:1005D000BF91AF919F918F913F912F910F900FBE3F
:1005E0000F901F90189526E8230F0296A11DB11DAC
:1005F000D2CF109254011092530188EE93E0A0E004
:10060000B0E08093550190935601A0935701B093A9
:1006100058018AE091E0909352018093510185EC5A
:1006200090E090935E0180935D0184EC90E0909364
:10063000600180935F0180EC90E090936201809371
:10064000610181EC90E0909364018093630182ECFE
:1006500090E0909366018093650186EC90E0909322
:1006600068018093670110926A0110926B011092E9
:100670006C0110926D011092EF011092EE01109238
:10068000F1011092F0011092F3011092F20161E079
:1006900070E090E080E00E9458060097E1F09093AF
:1006A000EF018093EE011092F1011092F001209180
:1006B000F2013091F301232B11F4FC01108210920E
:1006C000F3011092F20166E471E08091EE019091E5
:1006D000EF010C941E078091EE019091EF010097BD
:1006E00011F00E94CF051092EF011092EE011092CE
:1006F000F3011092F2011092F1011092F0010895AD
:10070000789484B5826084BD84B5816084BD85B5EC
:10071000826085BD85B5816085BD80916E008160F8
:1007200080936E001092810080918100826080939E
:1007300081008091810081608093810080918000A0
:100740008160809380008091B10084608093B100CB
:100750008091B00081608093B00080917A008460C5
:1007600080937A0080917A00826080937A008091F1
:100770007A00816080937A0080917A00806880930B
:100780007A001092C10085E00E9488008BE00E94F0
:10079000880088E00E94880087E00E9488008AE044
:1007A0000E94880089E00E948800E0916101F09138
:1007B000620182E08083E0915D01F0915E01108230
:1007C000E0915F01F09160018FEC808310926901EC
:1007D000E0916501F091660186E08083E09163011C
:1007E000F0916401808180618083E0916301F091E8
:1007F0006401808188608083E0916301F0916401ED
:10080000808180688083E0916301F0916401808140
:100810008F7D80834BE250E068E171E081E591E0FB
:100820000E94A70042E050E064E471E081E591E0BD
:100830000E94A700C0E0D0E061E088E00E94B4011F
:1008400060E087E00E94B40161E08AE00E94B401A8
:1008500060E089E00E94B40160E777E180E090E029
:100860000E94250261E088E00E94B40160E087E018
:100870000E94B40160E08AE00E94B40161E089E076
:100880000E94B40160ED77E080E090E00E942502D4
:1008900061E088E00E94B40160E087E00E94B4015A
:1008A00061E08AE00E94B40160E089E00E94B40146
:1008B00060EA7FE080E090E00E94250261E088E04D
:1008C0000E94B40160E087E00E94B40160E08AE029
:1008D0000E94B40161E089E00E94B40160ED77E01C
:1008E00080E090E00E94250260E088E00E94B40170
:1008F00061E087E00E94B40160E08AE00E94B401F8
:1009000061E089E00E94B40168E873E180E090E072
:100910000E94250260E088E00E94B40161E087E067
:100920000E94B40161E08AE00E94B40160E089E0C5
:100930000E94B40160ED77E080E090E00E94250223
:1009400060E088E00E94B40161E087E00E94B401A9
:1009500060E08AE00E94B40161E089E00E94B40195
:1009600060EA7FE080E090E00E94250261E088E09C
:100970000E94B40160E087E00E94B40160E08AE078
:100980000E94B40161E089E00E94B40168EE73E066
:1009900080E090E00E94250260E088E00E94B401BF
:1009A00060E087E00E94B40160E08AE00E94B40148
:1009B00060E089E00E94B40168E57BE180E090E0BE
:1009C0000E942502209709F437CF0E941101882345
:1009D00009F432CF0E9400002FCF8091EE01909158
:1009E000EF01009711F00C94CF0508952F923F92DC
:1009F0004F925F926F927F928F929F92AF92BF922F
:100A0000CF92DF92EF92FF920F931F93CF93DF93DA
:100A1000CDB7DEB7CA1BDB0B0FB6F894DEBF0FBE37
:100A2000CDBF09942A88398848885F846E847D8484
:100A30008C849B84AA84B984C884DF80EE80FD8086
:100A40000C811B81AA81B981CE0FD11D0FB6F894FC
:100A5000DEBF0FBECDBFED010895EE0FFF1F059065
:100A6000F491E02D09940F931F93CF93DF9382307D
:100A7000910510F482E090E0E091F601F091F70129
:100A800030E020E0B0E0A0E0309799F42115310586
:100A900009F44AC0281B390B24303105D8F58A8166
:100AA0009B816115710589F1FB0193838283FE01AE
:100AB00011C0408151810281138148175907E0F02C
:100AC0004817590799F4109761F012960C931297F2
:100AD00013961C933296CF01DF91CF911F910F9106
:100AE00008950093F6011093F701F4CF2115310515
:100AF00051F04217530738F0A901DB019A01BD01FB
:100B0000DF01F801C1CFEF01F9CF9093F701809396
:100B1000F601CDCFFE01E20FF31F81939193225096
:100B2000310939832883D7CF2091F4013091F50121
:100B3000232B41F420910201309103013093F50100
:100B40002093F4012091000130910101211531051C
:100B500041F42DB73EB74091040150910501241B8B
:100B6000350BE091F401F091F501E217F307A0F4E1
:100B70002E1B3F0B2817390778F0AC014E5F5F4FF3
:100B80002417350748F04E0F5F1F5093F50140932F
:100B9000F401819391939FCFF0E0E0E09CCFCF935D
:100BA000DF930097E9F0FC01329713821282A09143
:100BB000F601B091F701ED0130E020E01097A1F4CB
:100BC00020813181820F931F2091F4013091F50132
:100BD0002817390709F061C0F093F501E093F4019B
:100BE000DF91CF910895EA01CE17DF07E8F54A813A
:100BF0005B819E0141155105B1F7E901FB83EA8351
:100C000049915991C40FD51FEC17FD0761F48081FC
:100C100091810296840F951FE901998388838281CF
:100C200093819B838A83F0E0E0E012968D919C9102
:100C300013970097B9F52D913C911197CD0102962C
:100C4000820F931F2091F4013091F5012817390785
:100C500039F6309751F51092F7011092F601B093E2
:100C6000F501A093F401BCCFD383C28340815181AD
:100C7000840F951FC817D90761F44E5F5F4F8881B5
:100C80009981480F591F518340838A819B819383A7
:100C900082832115310509F0B0CFF093F701E0937D
:100CA000F6019ECFFD01DC01C0CF13821282D7CFA7
:100CB000B0E0A0E0EEE5F6E00C94F8048C010097BB
:100CC00051F4CB010E9433058C01C801CDB7DEB7CA
:100CD000E0E10C941405FC01E60FF71F9C01225083
:100CE0003109E217F30708F49DC0D901CD91DC91D9
:100CF0001197C617D70798F0C530D10530F3CE014C
:100D000004978617970708F3C61BD70B2297C19342
:100D1000D1936D937C93CF010E94CF05D6CF5B0119
:100D2000AC1ABD0A4C018C0E9D1EA091F601B0912B
:100D3000F701512C412CF12CE12C109731F58091C9
:100D4000F4019091F5018815990509F05CC04616EB
:100D5000570608F058C0809100019091010100975A
:100D600041F48DB79EB74091040150910501841B59
:100D7000950BE817F90708F055C0F093F501E093DB
:100D8000F401F90171836083A0CF8D919C9111973B
:100D900012966C90129713967C901397A815B9052C
:100DA00059F56C0142E0C40ED11CCA14DB0420F1D9
:100DB000AC014A195B09DA011296159780F062823C
:100DC000738251834083D9016D937C93E114F104C4
:100DD00071F0D7011396FC93EE93129776CF22967B
:100DE0008C0F9D1FF90191838083F301EFCFF09366
:100DF000F701E093F60169CF4816590608F42C0173
:100E00007D01D3019ACFCB010E9433057C0100976D
:100E100049F0AE01B8010E941507C8010E94CF0534
:100E2000870153CF10E000E050CFFB01DC0102C08E
:100E300001900D9241505040D8F70895FB01DC011C
:100E400001900D920020E1F7089510E0CDE5D0E08B
:100E500004C0FE010E942D052196CE35D107C9F7A9
:100E6000F894FFCF0000F801800000000000470167
:100E7000A700D40094010501E300F700666F7277C4
:100E80006172643D46202C6261636B776172643DE0
:100E9000422C6C6566743D4C2C72696768743D52D7
:0C0EA0002C73746F703D53000D0A0000AD
:107E0000112484B714BE81FFF0D085E080938100F7
:107E100082E08093C00088E18093C10086E0809377
:107E2000C20080E18093C4008EE0C9D0259A86E02C
:107E300020E33CEF91E0309385002093840096BBD3
:107E4000B09BFECF1D9AA8958150A9F7CC24DD24C4
:107E500088248394B5E0AB2EA1E19A2EF3E0BF2EE7
:107E6000A2D0813461F49FD0082FAFD0023811F036
:107E7000013811F484E001C083E08DD089C08234E0
:107E800011F484E103C0853419F485E0A6D080C0E4
:107E9000853579F488D0E82EFF2485D0082F10E0AE
:107EA000102F00270E291F29000F111F8ED06801E7
:107EB0006FC0863521F484E090D080E0DECF843638
:107EC00009F040C070D06FD0082F6DD080E0C81688
:107ED00080E7D80618F4F601B7BEE895C0E0D1E017
:107EE00062D089930C17E1F7F0E0CF16F0E7DF06D8
:107EF00018F0F601B7BEE89568D007B600FCFDCFD4
:107F0000A601A0E0B1E02C9130E011968C91119780
:107F100090E0982F8827822B932B1296FA010C0160
:107F200087BEE89511244E5F5F4FF1E0A038BF0790
:107F300051F7F601A7BEE89507B600FCFDCF97BE46
:107F4000E89526C08437B1F42ED02DD0F82E2BD052
:107F50003CD0F601EF2C8F010F5F1F4F84911BD097
:107F6000EA94F801C1F70894C11CD11CFA94CF0C13
:107F7000D11C0EC0853739F428D08EE10CD085E9AC
:107F80000AD08FE07ACF813511F488E018D01DD067
:107F900080E101D065CF982F8091C00085FFFCCF94
:107FA0009093C60008958091C00087FFFCCF809118
:107FB000C00084FD01C0A8958091C6000895E0E648
:107FC000F0E098E1908380830895EDDF803219F02E
:107FD00088E0F5DFFFCF84E1DECF1F93182FE3DFCA
:107FE0001150E9F7F2DF1F91089580E0E8DFEE27F6
:047FF000FF270994CA
:027FFE00040479
:00000001FF
