:020000040000FA
:100000000C9463000C948B000C948B000C948B006C
:100010000C948B000C948B000C948B000C948B0034
:100020000C948B000C948B000C948B000C948B0024
:100030000C948B000C948B000C948B000C948B0014
:100040000C9448030C948B000C94B8030C9492030A
:100050000C948B000C948B000C948B000C948B00F4
:100060000C948B000C948B000000000024002700EF
:100070002A0000000000250028002B0000000000DE
:1000800023002600290004040404040404040202DA
:100090000202020203030303030301020408102007
:1000A0004080010204081020010204081020000012
:1000B0000008000201000003040700000000000027
:1000C0000000EA03D50511241FBECFEFD8E0DEBF44
:1000D000CDBF22E0A0E6B1E001C01D92A231B2077F
:1000E000E1F711E0A0E0B1E0EEEBF3E102C0059032
:1000F0000D92A036B107D9F710E0C2E6D0E004C0F7
:100100002197FE010E94DA07C136D107C9F70E9484
:1001100071040C94D2090C940000AF92BF92CF925C
:10012000DF92EF92FF920F931F93CF93DF936C01B7
:100130007B018B01040F151FEB015E01AE18BF0898
:10014000C017D10759F06991D601ED91FC9101904A
:10015000F081E02DC6010995892B79F7C501DF9162
:10016000CF911F910F91FF90EF90DF90CF90BF90B4
:10017000AF900895FC01538D448D252F30E0842FDE
:1001800090E0821B930B541710F0CF9608950197BF
:100190000895FC01918D828D981761F0A28DAE0FAC
:1001A000BF2FB11D5D968C91928D9F5F9F73928F33
:1001B00090E008958FEF9FEF0895FC01918D828D5F
:1001C000981731F0828DE80FF11D858D90E008952C
:1001D0008FEF9FEF0895FC01918D228D892F90E084
:1001E000805C9F4F821B91098F73992708958BE63E
:1001F00091E00E94EB0021E0892B09F420E0822F9E
:10020000089580E090E0892B29F00E94F700811189
:100210000C9400000895FC01A48DA80FB92FB11D06
:10022000A35ABF4F2C91848D90E001968F7399272C
:10023000848FA689B7892C93A089B1898C9183700A
:1002400080648C93938D848D981306C00288F38903
:10025000E02D80818F7D80830895EF92FF920F9330
:100260001F93CF93DF93EC0181E0888F9B8D8C8D62
:1002700098131AC0E889F989808185FF15C09FB756
:10028000F894EE89FF896083E889F9898081837019
:10029000806480839FBF81E090E0DF91CF911F91C8
:1002A0000F91FF90EF900895F62E0B8D10E00F5FE9
:1002B0001F4F0F731127E02E8C8D8E110CC00FB6BF
:1002C00007FCFACFE889F989808185FFF5CFCE0157
:1002D0000E940B01F1CFEB8DEC0FFD2FF11DE35AC6
:1002E000FF4FF0829FB7F8940B8FEA89FB898081DA
:1002F0008062CFCFCF93DF93EC01888D8823B9F054
:10030000AA89BB89E889F9898C9185FD03C0808120
:1003100086FD0DC00FB607FCF7CF8C9185FFF2CF9D
:10032000808185FFEDCFCE010E940B01E9CFDF91E7
:10033000CF910895833081F028F4813099F0823094
:10034000A9F008958730A9F08830C9F08430B1F45D
:10035000809180008F7D03C0809180008F77809393
:100360008000089584B58F7784BD089584B58F7D0E
:10037000FBCF8091B0008F778093B000089580917B
:10038000B0008F7DF9CFCF93DF93282F30E0F901B4
:10039000E255FF4F8491F901E656FF4FD491F901E0
:1003A000EA57FF4FC491CC23A1F081110E949A011A
:1003B000EC2FF0E0EE0FFF1FE458FF4FA591B49132
:1003C000EC91ED2381E090E009F480E0DF91CF91A2
:1003D000089580E090E0FACF1F93CF93DF93282F0A
:1003E00030E0F901E255FF4F8491F901E656FF4FE5
:1003F000D491F901EA57FF4FC491CC23A9F0162FED
:1004000081110E949A01EC2FF0E0EE0FFF1FEE58D1
:10041000FF4FA591B4918FB7F894EC91111108C0DA
:10042000D095DE23DC938FBFDF91CF911F9108958C
:10043000DE2BF8CFCF93DF9390E0FC01E656FF4F21
:1004400024918A579F4FFC0184918823D1F090E03A
:10045000880F991FFC01E859FF4FA591B491FC0149
:10046000EE58FF4FC591D49161110EC09FB7F8941B
:100470008C91E22FE0958E238C932881E223E883F0
:100480009FBFDF91CF9108958FB7F894EC91E22B45
:10049000EC938FBFF6CF1F93CF93DF93182FEB0111
:1004A00061E00E941A02209739F460E0812FDF9109
:1004B000CF911F910C94EC01CF3FD10511F461E075
:1004C000F5CFE12FF0E0E255FF4FE491E33031F159
:1004D00040F4E130B1F0E230E1F0C038D1057CF712
:1004E000E4CFE73029F1E83059F1E430B1F78091F9
:1004F0008000806280938000D0938B00C0938A003C
:1005000004C084B5806884BDC7BDDF91CF911F91C1
:10051000089584B5806284BDC8BDF7CF8091800006
:10052000806880938000D0938900C0938800EDCFCD
:100530008091B00080688093B000C093B300E5CF95
:100540008091B00080628093B000C093B400DDCF92
:10055000FC0101900020E9F73197AF01481B590BCE
:10056000BC018BE691E00C948D00CF93DF930E9449
:10057000A802EC0188E191E00E94A8028C0F9D1F67
:10058000DF91CF9108958F929F92AF92BF92CF92B9
:10059000DF92EF92FF920F931F93CF93DF93CDB72C
:1005A000DEB7A1970FB6F894DEBF0FBECDBF6C01CA
:1005B000990FEE08FF08F7FE47C06DE28BE691E069
:1005C0000E942D018C0122273327A9012C193D09F6
:1005D0004E095F0919A2CE0181967C019AE0892E0D
:1005E000912CA12CB12CCA01B901A50194010E9442
:1005F000B807605DF70162937F0121153105410560
:10060000510589F790E080E0309719F0CF010E9402
:10061000A802080F191F88E191E00E94A802800F2C
:10062000911FA1960FB6F894DEBF0FBECDBFDF912C
:10063000CF911F910F91FF90EF90DF90CF90BF90DF
:10064000AF909F908F900895A701960119A28E01F7
:100650000F5D1F4F8AE0C82ED12CE12CF12CCA016E
:10066000B901A70196010E94B807605DF801629385
:100670008F01211531054105510589F7309729F082
:10068000CF010E94A8028C01C6CF10E000E0C3CFCA
:100690001F920F920FB60F9211242F933F938F93B7
:1006A0009F93AF93BF938091670190916801A09150
:1006B0006901B0916A013091660123E0230F2D3763
:1006C00058F50196A11DB11D209366018093670125
:1006D00090936801A0936901B0936A0180916201CF
:1006E00090916301A0916401B09165010196A11DF3
:1006F000B11D8093620190936301A0936401B09354
:100700006501BF91AF919F918F913F912F910F9074
:100710000FBE0F901F90189526E8230F0296A11D7B
:10072000B11DD2CF1F920F920FB60F9211242F93AB
:100730003F934F935F936F937F938F939F93AF9369
:10074000BF93EF93FF938BE691E00E940B01FF9123
:10075000EF91BF91AF919F918F917F916F915F9139
:100760004F913F912F910F900FBE0F901F901895B2
:100770001F920F920FB60F9211242F938F939F9376
:10078000EF93FF93E0917B01F0917C018081E091F8
:100790008101F091820182FD1BC0908180918401D2
:1007A0008F5F8F7320918501821741F0E091840162
:1007B000F0E0E559FE4F958F80938401FF91EF9112
:1007C0009F918F912F910F900FBE0F901F901895B2
:1007D0008081F4CF10926E0110926D0188EE93E04B
:1007E000A0E0B0E080936F0190937001A09371013D
:1007F000B09372018AE091E090936C0180936B0159
:1008000085EC90E0909378018093770184EC90E000
:1008100090937A018093790180EC90E090937C0131
:1008200080937B0181EC90E090937E0180937D0129
:1008300082EC90E09093800180937F0186EC90E0C1
:10084000909382018093810110928401109285011E
:1008500010928601109287011092090210920802EC
:1008600010920B0210920A0210920D0210920C02CA
:1008700061E070E090E080E00E9405090097E1F0FF
:10088000909309028093080210920B0210920A02C0
:1008900020910C0230910D02232B11F4FC011082E7
:1008A00010920D0210920C026AE171E08091080230
:1008B000909109020C94CB09809108029091090251
:1008C000009711F00E947C08109209021092080211
:1008D00010920D0210920C0210920B0210920A025A
:1008E0000895789484B5826084BD84B5816084BDA8
:1008F00085B5826085BD85B5816085BD80916E00BE
:10090000816080936E0010928100809181008260EE
:10091000809381008091810081608093810080912B
:1009200080008160809380008091B100846080931A
:10093000B1008091B00081608093B00080917A0016
:10094000846080937A0080917A00826080937A003C
:1009500080917A00816080937A0080917A0080682B
:1009600080937A001092C10061E085E00E941A0233
:1009700061E08BE00E941A0261E088E00E941A02A6
:1009800061E087E00E941A0261E08AE00E941A0298
:1009900061E089E00E941A0260E08EE00E941A0283
:1009A00060E080E10E941A02E0917B01F0917C01FD
:1009B00082E08083E0917701F09178011082E091EC
:1009C0007901F0917A018FEC808310928301E0919C
:1009D0007F01F091800186E08083E0917D01F091BC
:1009E0007E01808180618083E0917D01F0917E01B4
:1009F000808188608083E0917D01F0917E0180811B
:100A000080688083E0917D01F0917E0180818F7DFF
:100A100080838BE191E00E94B50284E4D82EC0E08F
:100A2000D0E0D0927C0080917A00806480937A003C
:100A300080917A0086FDFCCF8091780060917900EA
:100A4000762F682F072E000C880B990B0E94E0056B
:100A500020E030E04FE753E40E941B0620E030EC3A
:100A60004FE754E40E9410070E94820770936101CF
:100A7000609360018EE00E94C3017C0180E10E94CE
:100A8000C3018C018EE090E00E94C30280E190E0FF
:100A90000E94C302E114F10451F50115110509F09A
:100AA00066C060916001709161018BE00E944B0211
:100AB00060E088E00E94EC0160E087E00E94EC01C9
:100AC00060E08AE00E94EC0160E089E00E94EC01B5
:100AD00087E491E00E94B502209709F4A2CF0E941A
:100AE000F700882309F49DCF0E9400009ACF0115DA
:100AF0001105E9F4EA94EF2879F7609160017091AB
:100B000061018BE00E944B0261E088E00E94EC01F1
:100B100060E087E00E94EC0160E08AE00E94EC0166
:100B200061E089E00E94EC018CE491E0D3CF0130D8
:100B3000110591F6EA94EF2879F6609160017091C1
:100B400061018BE00E944B0261E088E00E94EC01B1
:100B500060E087E00E94EC0161E08AE00E94EC0125
:100B600060E089E00E94EC0187E591E0B3CF0130BD
:100B7000110509F0B1CF60916001709161018BE0C6
:100B80000E944B0260E088E00E94EC0161E087E097
:100B90000E94EC0161E08AE00E94EC0160E089E0E3
:100BA0000E94EC0181E591E095CF8091080290913F
:100BB0000902009711F00C947C080895E89409C08C
:100BC00097FB3EF490958095709561957F4F8F4F80
:100BD0009F4F9923A9F0F92F96E9BB279395F69596
:100BE000879577956795B795F111F8CFFAF4BB0F14
:100BF00011F460FF1BC06F5F7F4F8F4F9F4F16C078
:100C0000882311F096E911C0772321F09EE8872F01
:100C1000762F05C0662371F096E8862F70E060E0BD
:100C20002AF09A95660F771F881FDAF7880F969536
:100C3000879597F908950E942E060C949F060E94AE
:100C4000910638F00E94980620F0952311F00C943C
:100C500088060C948E0611240C94D3060E94B006CC
:100C600070F3959FC1F3950F50E0551F629FF001FF
:100C7000729FBB27F00DB11D639FAA27F00DB11D18
:100C8000AA1F649F6627B00DA11D661F829F2227A1
:100C9000B00DA11D621F739FB00DA11D621F839F28
:100CA000A00D611D221F749F3327A00D611D231FFE
:100CB000849F600D211D822F762F6A2F11249F574C
:100CC00050409AF0F1F088234AF0EE0FFF1FBB1F4F
:100CD000661F771F881F91505040A9F79E3F51050E
:100CE00080F00C9488060C94D3065F3FE4F3983EA2
:100CF000D4F3869577956795B795F795E7959F5FB8
:100D0000C1F7FE2B880F911D9695879597F9089549
:100D100097F99F6780E870E060E008959FEF80ECAE
:100D2000089500240A941616170618060906089551
:100D300000240A9412161306140605060895092EB7
:100D40000394000C11F4882352F0BB0F40F4BF2B26
:100D500011F460FF04C06F5F7F4F8F4F9F4F089566
:100D600057FD9058440F551F59F05F3F71F047955C
:100D7000880F97FB991F61F09F3F79F08795089541
:100D8000121613061406551FF2CF4695F1DF08C060
:100D9000161617061806991FF1CF8695710561057D
:100DA00008940895E894BB2766277727CB0197F925
:100DB00008952F923F924F925F926F927F928F92FF
:100DC0009F92AF92BF92CF92DF92EF92FF920F93DA
:100DD0001F93CF93DF93CDB7DEB7CA1BDB0B0FB6E4
:100DE000F894DEBF0FBECDBF09942A8839884888A1
:100DF0005F846E847D848C849B84AA84B984C88437
:100E0000DF80EE80FD800C811B81AA81B981CE0F2D
:100E1000D11D0FB6F894DEBF0FBECDBFED01089512
:100E20000E9424070C949F060E94980658F00E9486
:100E3000910640F029F45F3F29F00C948806511187
:100E40000C94D3060C948E060E94B00668F3992386
:100E5000B1F3552391F3951B550BBB27AA276217B6
:100E60007307840738F09F5F5F4F220F331F441FC3
:100E7000AA1FA9F335D00E2E3AF0E0E832D09150F7
:100E80005040E695001CCAF72BD0FE2F29D0660FE4
:100E9000771F881FBB1F261737074807AB07B0E827
:100EA00009F0BB0B802DBF01FF2793585F4F3AF02D
:100EB0009E3F510578F00C9488060C94D3065F3F52
:100EC000E4F3983ED4F3869577956795B795F795B3
:100ED0009F5FC9F7880F911D9695879597F908959B
:100EE000E1E0660F771F881FBB1F62177307840737
:100EF000BA0720F0621B730B840BBA0BEE1F88F746
:100F0000E09508950E9489076894B1110C94D30666
:100F100008950E94B80688F09F5798F0B92F992736
:100F2000B751B0F0E1F0660F771F881F991F1AF0D4
:100F3000BA95C9F714C0B13091F00E94D206B1E061
:100F400008950C94D206672F782F8827B85F39F060
:100F5000B93FCCF3869577956795B395D9F73EF46D
:100F600090958095709561957F4F8F4F9F4F089515
:100F7000A1E21A2EAA1BBB1BFD010DC0AA1FBB1F9D
:100F8000EE1FFF1FA217B307E407F50720F0A21B0F
:100F9000B30BE40BF50B661F771F881F991F1A947C
:100FA00069F760957095809590959B01AC01BD01A6
:100FB000CF010895EE0FFF1F0590F491E02D0994E5
:100FC0000F931F93CF93DF938230910510F482E04B
:100FD00090E0E0911002F091110230E020E0B0E0EA
:100FE000A0E0309799F42115310509F44AC0281B77
:100FF000390B24303105D8F58A819B816115710543
:1010000089F1FB0193838283FE0111C040815181EC
:101010000281138148175907E0F04817590799F4DE
:10102000109761F012960C93129713961C933296B8
:10103000CF01DF91CF911F910F910895009310027E
:1010400010931102F4CF2115310551F042175307C7
:1010500038F0A901DB019A01BD01DF01F801C1CF20
:10106000EF01F9CF9093110280931002CDCFFE01D2
:10107000E20FF31F81939193225031093983288322
:10108000D7CF20910E0230910F02232B41F42091F3
:1010900002013091030130930F0220930E02209140
:1010A0000001309101012115310541F42DB73EB702
:1010B0004091040150910501241B350BE0910E0273
:1010C000F0910F02E217F307A0F42E1B3F0B281735
:1010D000390778F0AC014E5F5F4F2417350748F0B1
:1010E0004E0F5F1F50930F0240930E028193919316
:1010F0009FCFF0E0E0E09CCFCF93DF930097E9F043
:10110000FC01329713821282A0911002B091110259
:10111000ED0130E020E01097A1F420813181820FB1
:10112000931F20910E0230910F022817390709F002
:1011300061C0F0930F02E0930E02DF91CF9108950A
:10114000EA01CE17DF07E8F54A815B819E01411570
:101150005105B1F7E901FB83EA8349915991C40F25
:10116000D51FEC17FD0761F4808191810296840FF1
:10117000951FE90199838883828193819B838A8368
:10118000F0E0E0E012968D919C9113970097B9F5ED
:101190002D913C911197CD010296820F931F2091C2
:1011A0000E0230910F022817390739F6309751F5A2
:1011B0001092110210921002B0930F02A0930E022F
:1011C000BCCFD383C28340815181840F951FC81740
:1011D000D90761F44E5F5F4F88819981480F591F8D
:1011E000518340838A819B819383828321153105BA
:1011F00009F0B0CFF0931102E09310029ECFFD01F1
:10120000DC01C0CF13821282D7CFB0E0A0E0EBE0C8
:10121000F9E00C94DB068C01009751F4CB010E949D
:10122000E0078C01C801CDB7DEB7E0E10C94F7060A
:10123000FC01E60FF71F9C0122503109E217F3076A
:1012400008F49DC0D901CD91DC911197C617D7073D
:1012500098F0C530D10530F3CE0104978617970773
:1012600008F3C61BD70B2297C193D1936D937C9340
:10127000CF010E947C08D6CF5B01AC1ABD0A4C019D
:101280008C0E9D1EA0911002B0911102512C412C88
:10129000F12CE12C109731F580910E0290910F0204
:1012A0008815990509F05CC04616570608F058C025
:1012B0008091000190910101009741F48DB79EB794
:1012C0004091040150910501841B950BE817F90723
:1012D00008F055C0F0930F02E0930E02F9017183FC
:1012E0006083A0CF8D919C91119712966C9012976C
:1012F00013967C901397A815B90559F56C0142E037
:10130000C40ED11CCA14DB0420F1AC014A195B09DC
:10131000DA011296159780F06282738251834083BE
:10132000D9016D937C93E114F10471F0D701139608
:10133000FC93EE93129776CF22968C0F9D1FF901A6
:1013400091838083F301EFCFF0931102E0931002B9
:1013500069CF4816590608F42C017D01D3019ACFB4
:10136000CB010E94E0077C01009749F0AE01B80173
:101370000E94C209C8010E947C08870153CF10E077
:1013800000E050CFFB01DC0102C001900D92415002
:101390005040D8F70895FB01DC0101900D92002028
:1013A000E1F7089510E0C2E6D0E004C0FE010E941B
:1013B000DA072196C336D107C9F7F894FFCF0000AA
:1013C00012028000000000002D018D00BA007A0199
:1013D000EB00C900DD000D0A00666F727761726470
:1013E0003D46202C6261636B776172643D422C6CD8
:1013F0006566743D4C2C72696768743D522C737439
:101400006F703D530053746F70006C6566740072AA
:0E1410006967687400666F727761726400002D
:107E0000112484B714BE81FFF0D085E080938100F7
:107E100082E08093C00088E18093C10086E0809377
:107E2000C20080E18093C4008EE0C9D0259A86E02C
:107E300020E33CEF91E0309385002093840096BBD3
:107E4000B09BFECF1D9AA8958150A9F7CC24DD24C4
:107E500088248394B5E0AB2EA1E19A2EF3E0BF2EE7
:107E6000A2D0813461F49FD0082FAFD0023811F036
:107E7000013811F484E001C083E08DD089C08234E0
:107E800011F484E103C0853419F485E0A6D080C0E4
:107E9000853579F488D0E82EFF2485D0082F10E0AE
:107EA000102F00270E291F29000F111F8ED06801E7
:107EB0006FC0863521F484E090D080E0DECF843638
:107EC00009F040C070D06FD0082F6DD080E0C81688
:107ED00080E7D80618F4F601B7BEE895C0E0D1E017
:107EE00062D089930C17E1F7F0E0CF16F0E7DF06D8
:107EF00018F0F601B7BEE89568D007B600FCFDCFD4
:107F0000A601A0E0B1E02C9130E011968C91119780
:107F100090E0982F8827822B932B1296FA010C0160
:107F200087BEE89511244E5F5F4FF1E0A038BF0790
:107F300051F7F601A7BEE89507B600FCFDCF97BE46
:107F4000E89526C08437B1F42ED02DD0F82E2BD052
:107F50003CD0F601EF2C8F010F5F1F4F84911BD097
:107F6000EA94F801C1F70894C11CD11CFA94CF0C13
:107F7000D11C0EC0853739F428D08EE10CD085E9AC
:107F80000AD08FE07ACF813511F488E018D01DD067
:107F900080E101D065CF982F8091C00085FFFCCF94
:107FA0009093C60008958091C00087FFFCCF809118
:107FB000C00084FD01C0A8958091C6000895E0E648
:107FC000F0E098E1908380830895EDDF803219F02E
:107FD00088E0F5DFFFCF84E1DECF1F93182FE3DFCA
:107FE0001150E9F7F2DF1F91089580E0E8DFEE27F6
:047FF000FF270994CA
:027FFE00040479
:00000001FF
