:100000000C9463000C948B000C948B000C948B006C
:100010000C948B000C948B000C948B000C948B0034
:100020000C948B000C948B000C948B000C948B0024
:100030000C948B000C948B000C948B000C948B0014
:100040000C94DA020C948B000C944A030C94240355
:100050000C948B000C948B000C948B000C948B00F4
:100060000C948B000C948B000000000024002700EF
:100070002A0000000000250028002B0000000000DE
:1000800023002600290004040404040404040202DA
:100090000202020203030303030301020408102007
:1000A0004080010204081020010204081020000012
:1000B0000008000201000003040700000000000027
:1000C00000007C039E0511241FBECFEFD8E0DEBFE9
:1000D000CDBF22E0A0E6B1E001C01D92A431B2077D
:1000E000E1F711E0A0E0B1E0E8E6F3E102C005903D
:1000F0000D92A036B107D9F710E0C2E6D0E004C0F7
:100100002197FE010E94AF07C136D107C9F70E94AF
:1001100003040C94A7090C940000AF92BF92CF92F5
:10012000DF92EF92FF920F931F93CF93DF936C01B7
:100130007B018B01040F151FEB015E01AE18BF0898
:10014000C017D10759F06991D601ED91FC9101904A
:10015000F081E02DC6010995892B79F7C501DF9162
:10016000CF911F910F91FF90EF90DF90CF90BF90B4
:10017000AF900895FC01538D448D252F30E0842FDE
:1001800090E0821B930B541710F0CF9608950197BF
:100190000895FC01918D828D981761F0A28DAE0FAC
:1001A000BF2FB11D5D968C91928D9F5F9F73928F33
:1001B00090E008958FEF9FEF0895FC01918D828D5F
:1001C000981731F0828DE80FF11D858D90E008952C
:1001D0008FEF9FEF0895FC01918D228D892F90E084
:1001E000805C9F4F821B91098F73992708958DE63C
:1001F00091E00E94EB0021E0892B09F420E0822F9E
:10020000089580E090E0892B29F00E94F700811189
:100210000C9400000895FC01A48DA80FB92FB11D06
:10022000A35ABF4F2C91848D90E001968F7399272C
:10023000848FA689B7892C93A089B1898C9183700A
:1002400080648C93938D848D981306C00288F38903
:10025000E02D80818F7D80830895EF92FF920F9330
:100260001F93CF93DF93EC0181E0888F9B8D8C8D62
:1002700098131AC0E889F989808185FF15C09FB756
:10028000F894EE89FF896083E889F9898081837019
:10029000806480839FBF81E090E0DF91CF911F91C8
:1002A0000F91FF90EF900895F62E0B8D10E00F5FE9
:1002B0001F4F0F731127E02E8C8D8E110CC00FB6BF
:1002C00007FCFACFE889F989808185FFF5CFCE0157
:1002D0000E940B01F1CFEB8DEC0FFD2FF11DE35AC6
:1002E000FF4FF0829FB7F8940B8FEA89FB898081DA
:1002F0008062CFCFCF93DF93EC01888D8823B9F054
:10030000AA89BB89E889F9898C9185FD03C0808120
:1003100086FD0DC00FB607FCF7CF8C9185FFF2CF9D
:10032000808185FFEDCFCE010E940B01E9CFDF91E7
:10033000CF910895833081F028F4813099F0823094
:10034000A9F008958730A9F08830C9F08430B1F45D
:10035000809180008F7D03C0809180008F77809393
:100360008000089584B58F7784BD089584B58F7D0E
:10037000FBCF8091B0008F778093B000089580917B
:10038000B0008F7DF9CFCF93DF93282F30E0F901B4
:10039000E255FF4F8491F901E656FF4FD491F901E0
:1003A000EA57FF4FC491CC23A1F081110E949A011A
:1003B000EC2FF0E0EE0FFF1FE458FF4FA591B49132
:1003C000EC91ED2381E090E009F480E0DF91CF91A2
:1003D000089580E090E0FACF1F93CF93DF93282F0A
:1003E00030E0F901E255FF4F8491F901E656FF4FE5
:1003F000D491F901EA57FF4FC491CC23A9F0162FED
:1004000081110E949A01EC2FF0E0EE0FFF1FEE58D1
:10041000FF4FA591B4918FB7F894EC91111108C0DA
:10042000D095DE23DC938FBFDF91CF911F9108958C
:10043000DE2BF8CFCF93DF9390E0FC01E656FF4F21
:1004400024918A579F4FFC0184918823D1F090E03A
:10045000880F991FFC01E859FF4FA591B491FC0149
:10046000EE58FF4FC591D49161110EC09FB7F8941B
:100470008C91E22FE0958E238C932881E223E883F0
:100480009FBFDF91CF9108958FB7F894EC91E22B45
:10049000EC938FBFF6CF1F93CF93DF93182FEB0111
:1004A00061E00E941A02209739F460E0812FDF9109
:1004B000CF911F910C94EC01CF3FD10511F461E075
:1004C000F5CFE12FF0E0E255FF4FE491E33031F159
:1004D00040F4E130B1F0E230E1F0C038D1057CF712
:1004E000E4CFE73029F1E83059F1E430B1F78091F9
:1004F0008000806280938000D0938B00C0938A003C
:1005000004C084B5806884BDC7BDDF91CF911F91C1
:10051000089584B5806284BDC8BDF7CF8091800006
:10052000806880938000D0938900C0938800EDCFCD
:100530008091B00080688093B000C093B300E5CF95
:100540008091B00080628093B000C093B400DDCF92
:100550008E3008F08E508770806480937C0080918C
:100560007A00806480937A0080917A0086FDFCCFC7
:1005700080917800909179000895CF93DF93FC01EA
:1005800001900020E9F73197AF01481B590BBC01DE
:100590008DE691E00E948D00EC0142E050E068E1C0
:1005A00071E08DE691E00E948D008C0F9D1FDF9120
:1005B000CF9108951F920F920FB60F9211242F938F
:1005C0003F938F939F93AF93BF93809169019091D5
:1005D0006A01A0916B01B0916C013091680123E038
:1005E000230F2D3758F50196A11DB11D20936801E9
:1005F0008093690190936A01A0936B01B0936C01A1
:100600008091640190916501A0916601B0916701AC
:100610000196A11DB11D8093640190936501A09383
:100620006601B0936701BF91AF919F918F913F9108
:100630002F910F900FBE0F901F90189526E8230F53
:100640000296A11DB11DD2CF1F920F920FB60F922D
:1006500011242F933F934F935F936F937F938F93C7
:100660009F93AF93BF93EF93FF938DE691E00E942A
:100670000B01FF91EF91BF91AF919F918F917F916E
:100680006F915F914F913F912F910F900FBE0F90FF
:100690001F9018951F920F920FB60F9211242F934F
:1006A0008F939F93EF93FF93E0917D01F0917E01F3
:1006B0008081E0918301F091840182FD1BC09081D3
:1006C000809186018F5F8F7320918701821741F09F
:1006D000E0918601F0E0E359FE4F958F809386010B
:1006E000FF91EF919F918F912F910F900FBE0F90DF
:1006F0001F9018958081F4CF1092700110926F01B5
:1007000088EE93E0A0E0B0E08093710190937201D5
:10071000A0937301B09374018AE091E090936E010D
:1007200080936D0185EC90E090937A01809379013C
:1007300084EC90E090937C0180937B0180EC90E0CE
:1007400090937E0180937D0181EC90E090938001F5
:1007500080937F0182EC90E09093820180938101ED
:1007600086EC90E09093840180938301109286013F
:1007700010928701109288011092890110920B0249
:1007800010920A0210920D0210920C0210920F02A7
:1007900010920E0261E070E090E080E00E94DA08C2
:1007A0000097E1F090930B0280930A0210920D02E1
:1007B00010920C0220910E0230910F02232B11F4A3
:1007C000FC01108210920F0210920E026AE171E099
:1007D00080910A0290910B020C94A00980910A0268
:1007E00090910B02009711F00E94510810920B0299
:1007F00010920A0210920F0210920E0210920D0235
:1008000010920C020895789484B5826084BD84B5FA
:10081000816084BD85B5826085BD85B5816085BDFB
:1008200080916E00816080936E00109281008091B3
:10083000810082608093810080918100816080933B
:100840008100809180008160809380008091B10060
:1008500084608093B1008091B00081608093B0008B
:1008600080917A00846080937A0080917A0082601F
:1008700080937A0080917A00816080937A008091E1
:100880007A00806880937A001092C10061E085E070
:100890000E941A0261E08BE00E941A0261E088E087
:1008A0000E941A0261E087E00E941A0261E08AE079
:1008B0000E941A0261E089E00E941A0260E08EE064
:1008C0000E941A0260E080E10E941A0260E08FE05C
:1008D0000E941A02E0917D01F0917E0182E0808306
:1008E000E0917901F0917A011082E0917B01F09121
:1008F0007C018FEC808310928501E0918101F09161
:10090000820186E08083E0917F01F0918001808107
:1009100080618083E0917F01F09180018081886017
:100920008083E0917F01F0918001808180688083E5
:10093000E0917F01F091800180818F7D80838BE148
:1009400091E00E94BD0280E0882E80E0982EAA24CB
:10095000A394B12C82E10E94A802BC01990F880BDC
:10096000990B0E94AE0520E030E04FE753E40E946F
:100970000D0620E030EC4FE754E40E9402070E948D
:1009800074076B0170936301609362018EE00E94B3
:10099000C3018C0180E10E94C301EC018FE00E9441
:1009A000A802BC01990F880B990B0E94AE0520E0AC
:1009B00030E040EA50E40E940D0620E030EC4FE7C2
:1009C00054E40E9402072B013C0123E333E343E894
:1009D00050E40E94AA0718160CF046C0B0926101BC
:1009E000A09260010115110509F0A3C02097C1F480
:1009F000B6018BE00E944B0260E088E00E94EC01AF
:100A000060E087E00E94EC0160E08AE00E94EC0177
:100A100060E089E00E94EC0187E491E00E94BD0261
:100A20008091600190916101029790F5219781F585
:100A300060916201709163018BE00E944B0260E063
:100A400088E00E94EC0161E087E00E94EC0161E037
:100A50008AE00E94EC0160E089E00E94EC0181E5FF
:100A600091E00E94BD0214C023E333E343E850E465
:100A7000C301B2010E94A70587FDB0CF0115110582
:100A800099F48091600190916101029708F4AECFD2
:100A90008114910409F45ECF0E94F700882309F4C1
:100AA00059CF0E94000056CF0130110589F780917F
:100AB0006001909161010297D0F42097C1F4B601D2
:100AC0008BE00E944B0261E088E00E94EC0160E054
:100AD00087E00E94EC0160E08AE00E94EC0161E0A6
:100AE00089E00E94EC018CE491E00E94BD028091BB
:100AF000600190916101029758F6219749F6609143
:100B00006201709163018BE00E944B0261E088E01A
:100B10000E94EC0160E087E00E94EC0161E08AE065
:100B20000E94EC0160E089E00E94EC0187E591E021
:100B300098CF0130110509F0ABCFBFCF80910A02E9
:100B400090910B02009711F00C94510808950E94A7
:100B5000E90508F481E00895E89409C097FB3EF4A4
:100B600090958095709561957F4F8F4F9F4F9923FA
:100B7000A9F0F92F96E9BB279395F6958795779578
:100B80006795B795F111F8CFFAF4BB0F11F460FF38
:100B90001BC06F5F7F4F8F4F9F4F16C0882311F090
:100BA00096E911C0772321F09EE8872F762F05C0A4
:100BB000662371F096E8862F70E060E02AF09A953F
:100BC000660F771F881FDAF7880F9695879597F934
:100BD0000895990F0008550FAA0BE0E8FEEF1616CE
:100BE0001706E807F907C0F012161306E407F50721
:100BF00098F0621B730B840B950B39F40A2661F095
:100C0000232B242B252B21F408950A2609F4A14037
:100C1000A6958FEF811D811D08950E9420060C94DA
:100C200091060E94830638F00E948A0620F09523E0
:100C300011F00C947A060C94800611240C94C506CD
:100C40000E94A20670F3959FC1F3950F50E0551FC7
:100C5000629FF001729FBB27F00DB11D639FAA2711
:100C6000F00DB11DAA1F649F6627B00DA11D661F60
:100C7000829F2227B00DA11D621F739FB00DA11D81
:100C8000621F839FA00D611D221F749F3327A00D3B
:100C9000611D231F849F600D211D822F762F6A2FD7
:100CA00011249F5750409AF0F1F088234AF0EE0F3C
:100CB000FF1FBB1F661F771F881F91505040A9F769
:100CC0009E3F510580F00C947A060C94C5065F3F58
:100CD000E4F3983ED4F3869577956795B795F795A5
:100CE000E7959F5FC1F7FE2B880F911D969587951D
:100CF00097F9089597F99F6780E870E060E008959C
:100D00009FEF80EC089500240A9416161706180623
:100D10000906089500240A941216130614060506FF
:100D20000895092E0394000C11F4882352F0BB0F90
:100D300040F4BF2B11F460FF04C06F5F7F4F8F4FF3
:100D40009F4F089557FD9058440F551F59F05F3F2E
:100D500071F04795880F97FB991F61F09F3F79F0DD
:100D600087950895121613061406551FF2CF46955F
:100D7000F1DF08C0161617061806991FF1CF8695E1
:100D80007105610508940895E894BB2766277727C5
:100D9000CB0197F908952F923F924F925F926F92F5
:100DA0007F928F929F92AF92BF92CF92DF92EF92FB
:100DB000FF920F931F93CF93DF93CDB7DEB7CA1B7C
:100DC000DB0B0FB6F894DEBF0FBECDBF09942A88A7
:100DD000398848885F846E847D848C849B84AA844F
:100DE000B984C884DF80EE80FD800C811B81AA81DC
:100DF000B981CE0FD11D0FB6F894DEBF0FBECDBFA7
:100E0000ED0108950E9416070C9491060E948A062F
:100E100058F00E94830640F029F45F3F29F00C94BB
:100E20007A0651110C94C5060C9480060E94A20605
:100E300068F39923B1F3552391F3951B550BBB2709
:100E4000AA2762177307840738F09F5F5F4F220F4E
:100E5000331F441FAA1FA9F335D00E2E3AF0E0E845
:100E600032D091505040E695001CCAF72BD0FE2F8F
:100E700029D0660F771F881FBB1F26173707480723
:100E8000AB07B0E809F0BB0B802DBF01FF279358DB
:100E90005F4F3AF09E3F510578F00C947A060C941F
:100EA000C5065F3FE4F3983ED4F386957795679542
:100EB000B795F7959F5FC9F7880F911D9695879510
:100EC00097F90895E1E0660F771F881FBB1F62172F
:100ED00073078407BA0720F0621B730B840BBA0BED
:100EE000EE1F88F7E09508950E947B076894B11182
:100EF0000C94C50608950E94AA0688F09F5798F0A2
:100F0000B92F9927B751B0F0E1F0660F771F881F0E
:100F1000991F1AF0BA95C9F714C0B13091F00E9428
:100F2000C406B1E008950C94C406672F782F882773
:100F3000B85F39F0B93FCCF3869577956795B3954F
:100F4000D9F73EF490958095709561957F4F8F4FBE
:100F50009F4F08950E94E90508F48FEF0895EE0F62
:100F6000FF1F0590F491E02D09940F931F93CF93E9
:100F7000DF938230910510F482E090E0E09112025C
:100F8000F091130230E020E0B0E0A0E0309799F457
:100F90002115310509F44AC0281B390B24303105CD
:100FA000D8F58A819B816115710589F1FB019383D5
:100FB0008283FE0111C04081518102811381481753
:100FC0005907E0F04817590799F4109761F0129605
:100FD0000C93129713961C933296CF01DF91CF9109
:100FE0001F910F9108950093120210931302F4CFF2
:100FF0002115310551F04217530738F0A901DB01E3
:101000009A01BD01DF01F801C1CFEF01F9CF909343
:10101000130280931202CDCFFE01E20FF31F8193E2
:1010200091932250310939832883D7CF2091100220
:1010300030911102232B41F42091020130910301E0
:101040003093110220931002209100013091010190
:101050002115310541F42DB73EB74091040150915F
:101060000501241B350BE0911002F0911102E217EB
:10107000F307A0F42E1B3F0B2817390778F0AC01BB
:101080004E5F5F4F2417350748F04E0F5F1F509398
:10109000110240931002819391939FCFF0E0E0E022
:1010A0009CCFCF93DF930097E9F0FC013297138236
:1010B0001282A0911202B0911302ED0130E020E003
:1010C0001097A1F420813181820F931F209110028B
:1010D000309111022817390709F061C0F09311020D
:1010E000E0931002DF91CF910895EA01CE17DF0758
:1010F000E8F54A815B819E0141155105B1F7E9018F
:10110000FB83EA8349915991C40FD51FEC17FD0762
:1011100061F4808191810296840F951FE901998382
:101120008883828193819B838A83F0E0E0E012963A
:101130008D919C9113970097B9F52D913C91119742
:10114000CD010296820F931F20911002309111025F
:101150002817390739F6309751F51092130210927B
:101160001202B0931102A0931002BCCFD383C283AA
:1011700040815181840F951FC817D90761F44E5FD4
:101180005F4F88819981480F591F518340838A811D
:101190009B81938382832115310509F0B0CFF093B1
:1011A0001302E09312029ECFFD01DC01C0CF138237
:1011B0001282D7CFB0E0A0E0E0EEF8E00C94CD06CC
:1011C0008C01009751F4CB010E94B5078C01C80136
:1011D000CDB7DEB7E0E10C94E906FC01E60FF71F9E
:1011E0009C0122503109E217F30708F49DC0D90190
:1011F000CD91DC911197C617D70798F0C530D1056E
:1012000030F3CE0104978617970708F3C61BD70B58
:101210002297C193D1936D937C93CF010E94510883
:10122000D6CF5B01AC1ABD0A4C018C0E9D1EA0915D
:101230001202B0911302512C412CF12CE12C109789
:1012400031F580911002909111028815990509F0ED
:101250005CC04616570608F058C080910001909176
:101260000101009741F48DB79EB740910401509160
:101270000501841B950BE817F90708F055C0F0939A
:101280001102E0931002F90171836083A0CF8D9168
:101290009C91119712966C90129713967C901397CD
:1012A000A815B90559F56C0142E0C40ED11CCA1449
:1012B000DB0420F1AC014A195B09DA01129615979B
:1012C00080F06282738251834083D9016D937C9355
:1012D000E114F10471F0D7011396FC93EE93129789
:1012E00076CF22968C0F9D1FF90191838083F301A5
:1012F000EFCFF0931302E093120269CF481659061C
:1013000008F42C017D01D3019ACFCB010E94B507CF
:101310007C01009749F0AE01B8010E949709C8010D
:101320000E945108870153CF10E000E050CFFB012D
:10133000DC0102C001900D9241505040D8F7089551
:10134000FB01DC0101900D920020E1F7089510E00F
:10135000C2E6D0E004C0FE010E94AF072196C3366A
:08136000D107C9F7F894FFCF93
:10136800000014028000000000002D018D00BA006A
:101378007A01EB00C900DD000D0A00666F72776123
:1013880072643D46202C6261636B776172643D42F2
:101398002C6C6566743D4C2C72696768743D522CE0
:1013A80073746F703D530053746F70006C6566748E
:1013B80000726967687400666F7277617264000012
:00000001FF
