:100000000C945E000C9486000C9486000C94860080
:100010000C9486000C9486000C9486000C94860048
:100020000C9486000C9486000C9486000C94860038
:100030000C9486000C9486000C9486000C94860028
:100040000C9452020C9486000C94C2020C949C02F4
:100050000C9486000C9486000C9486000C94860008
:100060000C9486000C948600000000080002010039
:100070000003040700000000000000000000000072
:10008000250028002B0000000000240027002A0083
:10009000040404040404040402020202020203032E
:1000A0000303030301020408102040800102040836
:1000B0001020010204081020F402E20411241FBEE3
:1000C000CFEFD8E0DEBFCDBF21E0A4E4B1E001C0B6
:1000D0001D92A43FB207E1F711E0A0E0B1E0E0E635
:1000E000FEE002C005900D92A434B107D9F710E0EC
:1000F000CDE5D0E004C02197FE010E942205CC3559
:10010000D107C9F70E946A030C9423070C940000DE
:100110000895AF92BF92CF92DF92EF92FF920F932A
:100120001F93CF93DF936C017B018B01040F151F8D
:10013000EB015E01AE18BF08C017D10759F06991F5
:10014000D601ED91FC910190F081E02DC601099559
:10015000892B79F7C501DF91CF911F910F91FF9006
:10016000EF90DF90CF90BF90AF900895FC01538D3A
:10017000448D252F30E0842F90E0821B930B541781
:1001800010F0CF96089501970895FC01918D828D0E
:10019000981761F0A28DAE0FBF2FB11D5D968C91A7
:1001A000928D9F5F9F73928F90E008958FEF9FEFE6
:1001B00008952FB7F8948091490190914A01A09138
:1001C0004B01B0914C012FBF809355019093560184
:1001D000A0935701B09358018DE491E00E94C500AF
:1001E00097FF26C02FB7F8948091490190914A015A
:1001F000A0914B01B0914C012FBF409155015091FE
:1002000056016091570170915801841B950BA60B04
:10021000B70B40915101509152016091530170917F
:10022000540184179507A607B707B0F28FEF9FEF29
:100230000895FC01918D828D981731F0828DE80F21
:10024000F11D858D90E008958FEF9FEF0895FC01DB
:10025000918D228D892F90E0805C9F4F821B9109A8
:100260008F73992708958DE491E00E94270121E082
:10027000892B09F420E0822F089580E090E0892BFB
:1002800029F00E94330181110C9400000895FC01B3
:10029000A48DA80FB92FB11DA35ABF4F2C91848DE7
:1002A00090E001968F739927848FA689B7892C9344
:1002B000A089B1898C91837080648C93938D848D97
:1002C000981306C00288F389E02D80818F7D80839A
:1002D0000895EF92FF920F931F93CF93DF93EC015A
:1002E00081E0888F9B8D8C8D98131AC0E889F989DD
:1002F000808185FF15C09FB7F894EE89FF896083E0
:10030000E889F98980818370806480839FBF81E060
:1003100090E0DF91CF911F910F91FF90EF900895A2
:10032000F62E0B8D10E00F5F1F4F0F731127E02E7D
:100330008C8D8E110CC00FB607FCFACFE889F989B5
:10034000808185FFF5CFCE010E944701F1CFEB8D73
:10035000EC0FFD2FF11DE35AFF4FF0829FB7F89489
:100360000B8FEA89FB8980818062CFCFCF93DF93A7
:10037000EC01888D8823B9F0AA89BB89E889F989BD
:100380008C9185FD03C0808186FD0DC00FB607FCF2
:10039000F7CF8C9185FFF2CF808185FFEDCFCE0125
:1003A0000E944701E9CFDF91CF91089590E0FC01D1
:1003B000E859FF4F2491FC01EC55FF4F3491FC01AB
:1003C000E057FF4FE491EE23C9F0222339F02330A8
:1003D00001F1A8F4213019F1223029F1F0E0EE0FFB
:1003E000FF1FE458FF4FA591B4918FB7F894EC919B
:1003F000611126C030953E233C938FBF089527306E
:10040000A9F02830C9F0243049F7809180008F7D11
:1004100003C0809180008F7780938000DFCF84B508
:100420008F7784BDDBCF84B58F7DFBCF8091B0000B
:100430008F778093B000D2CF8091B0008F7DF9CFBD
:100440003E2BDACF42E050E068E171E08DE491E0CC
:100450000C9489000F931F93CF93DF93EC01888155
:100460009981009759F02A813B812617370730F090
:1004700081E0DF91CF911F910F9108958B016F5F04
:100480007F4F0E944D06009759F0998388831B8304
:100490000A832C813D81232B59F7FC011082E8CF80
:1004A00080E0E7CF1F920F920FB60F9211242F9387
:1004B0003F938F939F93AF93BF9380914901909106
:1004C0004A01A0914B01B0914C013091480123E0C9
:1004D000230F2D3758F50196A11DB11D209348011A
:1004E0008093490190934A01A0934B01B0934C0132
:1004F0008091440190914501A0914601B09147013E
:100500000196A11DB11D8093440190934501A093D4
:100510004601B0934701BF91AF919F918F913F9159
:100520002F910F900FBE0F901F90189526E8230F64
:100530000296A11DB11DD2CF1F920F920FB60F923E
:1005400011242F933F934F935F936F937F938F93D8
:100550009F93AF93BF93EF93FF938DE491E00E943D
:100560004701FF91EF91BF91AF919F918F917F9143
:100570006F915F914F913F912F910F900FBE0F9010
:100580001F9018951F920F920FB60F9211242F9360
:100590008F939F93EF93FF93E0915D01F0915E0144
:1005A0008081E0916301F091640182FD1BC0908124
:1005B000809166018F5F8F7320916701821741F0F0
:1005C000E0916601F0E0E35BFE4F958F809366015A
:1005D000FF91EF919F918F912F910F900FBE0F90F0
:1005E0001F9018958081F4CF1092500110924F0106
:1005F00088EE93E0A0E0B0E0809351019093520127
:10060000A0935301B09354018AE091E090934E017E
:1006100080934D0185EC90E090935A0180935901AD
:1006200084EC90E090935C0180935B0180EC90E01F
:1006300090935E0180935D0181EC90E09093600166
:1006400080935F0182EC90E090936201809361015E
:1006500086EC90E0909364018093630110926601B0
:100660001092670110926801109269011092EB01DB
:100670001092EA011092ED011092EC011092EF013C
:100680001092EE0170E060E08AEE91E00E942A0292
:100690002091EA013091EB01811113C02115310540
:1006A00019F0C9010E94C4051092EB011092EA01F1
:1006B0001092EF011092EE011092ED011092EC01F8
:1006C00008951092EF011092EE016AE171E0C90104
:1006D0000C941C07CF93DF93CDB7DEB728970FB6E6
:1006E000F894DEBF0FBECDBF789484B5826084BD20
:1006F00084B5816084BD85B5826085BD85B5816026
:1007000085BD80916E00816080936E0010928100A3
:10071000809181008260809381008091810081605E
:10072000809381008091800081608093800080911F
:10073000B10084608093B1008091B00081608093AB
:10074000B00080917A00846080937A0080917A0072
:10075000826080937A0080917A00816080937A0031
:1007600080917A00806880937A001092C100E9EA53
:10077000F0E02491E5E9F0E08491882399F090E09D
:10078000880F991FFC01EA57FF4FA591B491FC0116
:10079000E458FF4F859194918FB7F894EC91E22B38
:1007A000EC938FBFE0915D01F0915E0182E0808368
:1007B000E0915901F0915A011082E0915B01F091B2
:1007C0005C018FEC808310926501E0916101F091F2
:1007D000620186E08083E0915F01F0916001808199
:1007E00080618083E0915F01F09160018081886089
:1007F0008083E0915F01F091600180818068808357
:10080000E0915F01F091600180818F7D808345E2FE
:1008100050E06BE171E08DE491E00E9489000E945C
:10082000220280E0E82E80E0F82E8DE491E00E9424
:100830002701181619060CF0A0C01A8219821C8212
:100840001B821E821D8270E060E0CE0101960E9434
:100850002A0229813A8181112BC02115310519F015
:10086000C9010E94C4051A8219821E821D821C823F
:100870001B820E94D90097FD23C08F8318860D81AB
:100880001E810F5F1F4FB801CE0101960E942A0200
:10089000882379F329813A818D819E81BE01695F28
:1008A0007F4F820F931F0E941C071E830D83E1CF91
:1008B0001E821D826AE171E0C9010E941C07D9CF26
:1008C0008091EA019091EB01009709F464C069817D
:1008D0007A816115710509F45CC04091EC01509179
:1008E000ED012D813E814217530708F452C00E944A
:1008F0001C078D819E819093EF018093EE011E82F3
:100900001D8289819A81009711F00E94C40540914F
:10091000EE015091EF016091EA017091EB018DE4DD
:1009200091E00E9489000E9422028091EE01909144
:10093000EF01892B71F061E471E08091EA019091FF
:10094000EB010E941307892B21F461E085E00E94EE
:10095000D6018091EE019091EF01892B71F06DE34A
:1009600071E08091EA019091EB010E941307892BBD
:1009700021F460E085E00E94D601E114F10409F45D
:1009800054CF0E943301882309F44FCF0E94000006
:100990004CCF0E94C40589819A819093EB0180938A
:1009A000EA018B819C819093ED018093EC018D8114
:1009B0009E819093EF018093EE011A8219821C822E
:1009C0001B829DCF8091EA019091EB01009711F07D
:1009D0000C94C40508952F923F924F925F926F92AC
:1009E0007F928F929F92AF92BF92CF92DF92EF92BF
:1009F000FF920F931F93CF93DF93CDB7DEB7CA1B40
:100A0000DB0B0FB6F894DEBF0FBECDBF09942A886A
:100A1000398848885F846E847D848C849B84AA8412
:100A2000B984C884DF80EE80FD800C811B81AA819F
:100A3000B981CE0FD11D0FB6F894DEBF0FBECDBF6A
:100A4000ED010895EE0FFF1F0590F491E02D09943C
:100A50000F931F93CF93DF938230910510F482E0C0
:100A600090E0E091F201F091F30130E020E0B0E09D
:100A7000A0E0309799F42115310509F44AC0281BEC
:100A8000390B24303105D8F58A819B8161157105B8
:100A900089F1FB0193838283FE0111C04081518162
:100AA0000281138148175907E0F04817590799F454
:100AB000109761F012960C93129713961C9332962E
:100AC000CF01DF91CF911F910F9108950093F20113
:100AD0001093F301F4CF2115310551F0421753075C
:100AE00038F0A901DB019A01BD01DF01F801C1CF96
:100AF000EF01F9CF9093F3018093F201CDCFFE0186
:100B0000E20FF31F81939193225031093983288397
:100B1000D7CF2091F0013091F101232B41F42091A6
:100B20000201309103013093F1012093F0012091F3
:100B30000001309101012115310541F42DB73EB777
:100B40004091040150910501241B350BE091F00107
:100B5000F091F101E217F307A0F42E1B3F0B2817C9
:100B6000390778F0AC014E5F5F4F2417350748F026
:100B70004E0F5F1F5093F1014093F00181939193C9
:100B80009FCFF0E0E0E09CCFCF93DF930097E9F0B8
:100B9000FC01329713821282A091F201B091F3010D
:100BA000ED0130E020E01097A1F420813181820F27
:100BB000931F2091F0013091F1012817390709F0B6
:100BC00061C0F093F101E093F001DF91CF910895BE
:100BD000EA01CE17DF07E8F54A815B819E014115E6
:100BE0005105B1F7E901FB83EA8349915991C40F9B
:100BF000D51FEC17FD0761F4808191810296840F67
:100C0000951FE90199838883828193819B838A83DD
:100C1000F0E0E0E012968D919C9113970097B9F562
:100C20002D913C911197CD010296820F931F209137
:100C3000F0013091F1012817390739F6309751F555
:100C40001092F3011092F201B093F101A093F00120
:100C5000BCCFD383C28340815181840F951FC817B5
:100C6000D90761F44E5F5F4F88819981480F591F02
:100C7000518340838A819B8193838283211531052F
:100C800009F0B0CFF093F301E093F2019ECFFD01A4
:100C9000DC01C0CF13821282D7CFB0E0A0E0E3E541
:100CA000F6E00C94ED048C01009751F4CB010E9406
:100CB00028058C01C801CDB7DEB7E0E10C94090529
:100CC000FC01E60FF71F9C0122503109E217F307E0
:100CD00008F49DC0D901CD91DC911197C617D707B3
:100CE00098F0C530D10530F3CE01049786179707E9
:100CF00008F3C61BD70B2297C193D1936D937C93B6
:100D0000CF010E94C405D6CF5B01AC1ABD0A4C01CD
:100D10008C0E9D1EA091F201B091F301512C412C3B
:100D2000F12CE12C109731F58091F0019091F101B7
:100D30008815990509F05CC04616570608F058C09A
:100D40008091000190910101009741F48DB79EB709
:100D50004091040150910501841B950BE817F90798
:100D600008F055C0F093F101E093F001F9017183AF
:100D70006083A0CF8D919C91119712966C901297E1
:100D800013967C901397A815B90559F56C0142E0AC
:100D9000C40ED11CCA14DB0420F1AC014A195B0952
:100DA000DA011296159780F0628273825183408334
:100DB000D9016D937C93E114F10471F0D70113967E
:100DC000FC93EE93129776CF22968C0F9D1FF9011C
:100DD00091838083F301EFCFF093F301E093F2016D
:100DE00069CF4816590608F42C017D01D3019ACF2A
:100DF000CB010E9428057C01009749F0AE01B801A3
:100E00000E940A07C8010E94C405870153CF10E061
:100E100000E050CFFB01DC0102C001900D92415077
:100E20005040D8F70895FB01DC018D9101908019A5
:100E30000110D9F3990B0895FB01DC0101900D928B
:100E40000020E1F7089510E0CDE5D0E004C0FE01F8
:100E50000E9422052196CE35D107C9F7F894FFCF1D
:100E60000000F40180000000000069018900B60064
:100E7000B6012701C50019010D0A006C6564206FD9
:100E80006E203D3D20656E746572206F6E2C6C6522
:100E900064206F66663D3D656E746572206F6666A0
:040EA000006F6E0071
:00000001FF
